:020000040800F2
:100000000000022059090008550900082D5C00086D
:1000100055090008550900085509000800000000AE
:10002000000000000000000000000000550900086A
:10003000550900080000000055090008B15B0008E0
:100040005509000855090008550900085509000818
:100050005509000855090008550900085509000808
:1000600055090008550900085509000849490008C4
:100070005549000855090008614900086D49000804
:1000800079F20008753E0008550900085509000876
:1000900055090008550900085509000855090008C8
:1000A00055090008550900085509000855090008B8
:1000B0004DE6000859E6000865E60008A93E00087C
:1000C00055090008B53E00085509000821550008EB
:1000D0002D550008ADF00008DDF0000811F1000812
:1000E00055090008550900080000000055090008DE
:1000F0005509000855090008550900085509000868
:10010000550900085509000871E60008395500082E
:1001100045F1000879F10008550900085509000863
:1001200055090008550900085D550008915500085B
:10013000ADF20008550900085509000855090008E6
:1001400000000000000000000000000000000000AF
:10015000550900085509000855090008ADF10008C7
:10016000C13E000855090008C15B0008E55B0008B6
:1001700055090008095C00085509000855090008E0
:100180005509000855090008E1F1000811F20008BE
:100190004555000851550008550900085509000843
:1001A00055090008550900085509000855090008B7
:1001B0006946000855090008550900085509000856
:1001C0005509000855090008550900085509000897
:1001D0005509000855090008550900085509000887
:1001E0005509000855090008550900085509000877
:1001F0005509000855090008550900085509000867
:100200005509000855090008550900085509000856
:100210005509000855090008550900085509000846
:10022000550900085509000855090008000000009C
:10023000550900085509000800000000550900088C
:100240005509000855090008550900085509000816
:100250005509000855090008550900085509000806
:1002600055090008550900085509000855090008F6
:10027000550900085509000845F200080000000073
:10028000550900085509000855090008000000003C
:08029000000000005509000800
:1002980010B5054C237833B9044B13B10448AFF3B8
:1002A80000800123237010BD080400240000000012
:1002B8005837010808B5034B1BB103490348AFF38E
:1002C800008008BD000000000C0400245837010815
:1002D80081F0004102E000BF83F0004330B54FEAEF
:1002E80041044FEA430594EA050F08BF90EA020F5C
:1002F8001FBF54EA000C55EA020C7FEA645C7FEAEF
:10030800655C00F0E2804FEA5454D4EB5555B8BF11
:100318006D420CDD2C4480EA020281EA030382EA82
:10032800000083EA010180EA020281EA0303362D14
:1003380088BF30BD11F0004F4FEA01314FF4801CE7
:100348004CEA113102D0404261EB410113F0004FF9
:100358004FEA03334CEA133302D0524263EB4303B0
:1003680094EA050F00F0A780A4F10104D5F1200E4E
:100378000DDB02FA0EFC22FA05F2801841F10001A9
:1003880003FA0EF2801843FA05F359410EE0A5F17D
:1003980020050EF1200E012A03FA0EFC28BF4CF0AE
:1003A800020C43FA05F3C01851EBE37101F0004564
:1003B80007D54FF0000EDCF1000C7EEB00006EEB71
:1003C8000101B1F5801F1BD3B1F5001F0CD34908FB
:1003D8005FEA30004FEA3C0C04F101044FEA445252
:1003E80012F5800F80F09A80BCF1004F08BF5FEAD9
:1003F800500C50F1000041EB045141EA050130BDB9
:100408005FEA4C0C404141EB0101013C28BFB1F5CA
:10041800801FE9D291F0000F04BF01460020B1FA15
:1004280081F308BF2033A3F10B03B3F120020CDAE8
:100438000C3208DD02F1140CC2F10C0201FA0CF0C6
:1004480021FA02F10CE002F11402D8BFC2F1200C2B
:1004580001FA02F120FA0CFCDCBF41EA0C019040E1
:10046800E41AA2BF01EB0451294330BD6FEA04042A
:100478001F3C1CDA0C340EDC04F11404C4F1200215
:1004880020FA04F001FA02F340EA030021FA04F327
:1004980045EA030130BDC4F10C04C4F1200220FA7E
:1004A80002F001FA04F340EA0300294630BD21FABC
:1004B80004F0294630BD94F0000F83F4801306BF82
:1004C80081F480110134013D4EE77FEA645C18BF76
:1004D8007FEA655C29D094EA050F08BF90EA020F0D
:1004E80005D054EA000C04BF1946104630BD91EA05
:1004F800030F1EBF0021002030BD5FEA545C05D108
:100508004000494128BF41F0004130BD14F5800446
:100518003CBF01F5801130BD01F0004545F0FE41BA
:1005280041F470014FF0000030BD7FEA645C1ABFEF
:10053800194610467FEA655C1CBF0B46024650EA26
:10054800013406BF52EA033591EA030F41F4002152
:1005580030BD00BF90F0000F04BF0021704730B5D8
:100568004FF4806404F132044FF000054FF00001AD
:1005780050E700BF90F0000F04BF0021704730B56E
:100588004FF4806404F1320410F0004548BF404243
:100598004FF000013EE700BF42004FEAE2014FEA98
:1005A80031014FEA02701FBF12F07F4393F07F4F73
:1005B80081F06051704732F07F4208BF704793F076
:1005C8007F4F04BF41F40021704730B54FF4607489
:1005D80001F0004521F000411CE700BF50EA01028C
:1005E80008BF704730B54FF000050AE050EA010235
:1005F80008BF704730B511F0004502D5404261EBA5
:1006080041014FF4806404F132045FEA915C3FF4E5
:10061800D8AE4FF003025FEADC0C18BF03325FEA82
:10062800DC0C18BF033202EBDC02C2F1200300FA33
:1006380003FC20FA02F001FA03FE40EA0E0021FA58
:1006480002F11444BDE600BF53B94AB9002908BFF6
:1006580000281CBF4FF0FF314FF0FF3000F074B995
:10066800ADF1080C6DE904CE00F006F8DDF804E001
:10067800DDE9022304B070472DE9F047089D0446E0
:100688008E46002B4DD18A42944669D9B2FA82F23D
:1006980052B101FA02F3C2F1200120FA01F10CFA79
:1006A80002FC41EA030E94404FEA1C48210CBEFBB1
:1006B800F8F61FFA8CF708FB16E341EA034306FB3A
:1006C80007F199420AD91CEB030306F1FF3080F0C9
:1006D8001F81994240F21C81023E63445B1AA4B216
:1006E800B3FBF8F008FB103344EA034400FB07F7B8
:1006F800A7420AD91CEB040400F1FF3380F00A81F9
:10070800A74240F207816444023840EA0640E41BED
:1007180000261DB1D4400023C5E900433146BDE899
:10072800F0878B4209D9002D00F0EF800026C5E93B
:10073800000130463146BDE8F087B3FA83F6002E53
:100748004AD18B4202D3824200F2F980841A61EBCB
:10075800030301209E46002DE0D0C5E9004EDDE7E9
:1007680002B9FFDEB2FA82F2002A40F09280A1EBD1
:100778000C014FEA1C471FFA8CFE0126200CB1FB26
:10078800F7F307FB131140EA01410EFB03F088421F
:1007980008D91CEB010103F1FF3802D2884200F2AC
:1007A800CB804346091AA4B2B1FBF7F007FB10113E
:1007B80044EA01440EFB00FEA64508D91CEB0404DC
:1007C80000F1FF3102D2A64500F2BB800846A4EB37
:1007D8000E0440EA03409CE7C6F12007B34022FA22
:1007E80007FC4CEA030C20FA07F401FA06F31C4351
:1007F800F9404FEA1C4900FA06F3B1FBF9F8200C5E
:100808001FFA8CFE09FB181140EA014108FB0EF0A3
:10081800884202FA06F20BD91CEB010108F1FF3AF3
:1008280080F08880884240F28580A8F102086144FF
:10083800091AA4B2B1FBF9F009FB101144EA01410D
:1008480000FB0EFE8E4508D91CEB010100F1FF34B8
:100858006CD28E456AD90238614440EA0840A0FB50
:100868000294A1EB0E01A142C846A64656D353D026
:100878005DB1B3EB080261EB0E0101FA07F722FA4A
:1008880006F3F1401F43C5E9007100263146BDE873
:10089800F087C2F12003D8400CFA02FC21FA03F3D6
:1008A800914001434FEA1C471FFA8CFEB3FBF7F057
:1008B80007FB10360B0C43EA064300FB0EF69E427C
:1008C80004FA02F408D91CEB030300F1FF382FD215
:1008D8009E422DD9023863449B1B89B2B3FBF7F6BD
:1008E80007FB163341EA034106FB0EF38B4208D996
:1008F8001CEB010106F1FF3816D28B4214D9023ED7
:100908006144C91A46EA004638E72E46284605E7F4
:100918000646E3E61846F8E64B45A9D2B9EB0208C5
:1009280064EB0C0E0138A3E74646EAE7204694E755
:100938004046D1E7D0467BE7023B614432E7304688
:1009480009E76444023842E7704700BFFEE700BF8A
:100958000B480C4A904203D0121A0B4911F0B2FC12
:100968000A480B4A904203D0121A002111F0B8FC31
:1009780005F082FB11F07AFC01F09CFAFEE700BF5B
:100988000000002404040024883701080804002417
:10099800DC3C0024704700BF704700BF704700BFB1
:1009A800704700BF402070478020704749424FF48D
:1009B80080621430C9B211F093BC00BF02B3013A8F
:1009C80070B50C46002556082DED028B0D480834ED
:1009D80010F0C0FDB0EE408A0B4810F0BBFDF6EEFB
:1009E800007A38EE000AAE4205F1010520EE270A2A
:1009F80004ED020A04ED010AE8D1BDEC028B70BDDA
:100A0800704700BFD0080024F808002410B5044639
:100A180040F2144110F091FF204610BD2DE9F0413D
:100A2800B02482B000F1080600F1100500F11408A6
:100A3800002728468DF807400134394603F0C2F8EC
:100A4800642301220DF107013046E4B204F0C8FF27
:100A5800394628468DF8077003F0B4F8012264235C
:100A68000DF10701304604F0BBFF10233946284634
:100A78008DF8073003F0A6F8642301220DF1070171
:100A8800304604F0ADFF0121284603F09BF8802290
:100A9800414664233046904404F0A2FFB82CC7D1E5
:100AA80002B0BDE8F08100BF2DE9F04F89B008AC75
:100AB8009DF84870019104E90C000B78002B00F0B8
:100AC800AB801A469DF818809DF8193006464546B1
:100AD80090460393079B0593A8F12004E3B25E2B8D
:100AE80000F29E8033685E4ADB68934240F09B8048
:100AF8008020B3882B44834200F392803368594A9C
:100B08009B68934240F092804020F188039A0291BA
:100B18008B18834200F38480002A00F0918002FB46
:100B280004F46FF00049059BA1441444B6F804B0DE
:100B380003EB4909023BCDF8108003EB44030C4654
:100B48009A4639F802CFA5B304F007034FF0010E17
:100B5800E20859460EFA03FE0BF114034FFA8EFE13
:100B680003EBC21200236FEA0E0832440DE07F291E
:100B780006D83F2C04D8107897B14EEA00001070C0
:100B8800013301320131AB4213D00CFA03F00004F7
:100B9800EDD47F29F4D83F2CF2D81078002FECD070
:100BA800013308EA000001320131AB4202F8010CBE
:100BB800EBD1D14504F10104C3D1DDF810803268CE
:100BC8000BEB05042649D368A4B28B4234D18020AC
:100BD800844204D3D36822498B423AD17F24936854
:100BE800204AB480934224D14020029B834206D3FA
:100BF80033681C4A9B68934225D13F230293029B8A
:100C0800F380019B1878404507D113F8018F0193B1
:100C1800B8F1000F7FF460AF002009B0BDE8F08F95
:100C28004FF00008EDE73046984762E730469847AE
:100C38006BE730469847D8E7304698473268C7E7A9
:100C4800B6F804B0BBE730469847013883B2029340
:100C5800D5E7304698470138326884B2BFE700BF0D
:100C6800B1090008AD0900082DE9F04F85B0A1F1E0
:100C7800200504AC9DF83870009104E90C00EBB233
:100C88005E2B00F29580036880465D4ADB689DF81C
:100C9800084093429DF8096040F094808020B8F89D
:100CA80004302344834200F38380D8F80030554A47
:100CB8009B68934240F088804020B8F8062093193A
:100CC8000192834274DC002E00F0898006FB05F552
:100CD8006FF00040039B964628442E44B8F804A0C1
:100CE80003EB4000023B03EB460B30F8026FBCB34A
:100CF8000EF007034FF0010C4FEADE0251460CFAE2
:100D080003FC0AF114034FFA8CFC03EBC212002314
:100D18006FEA0C0942440EE07F2907D8BEF13F0F65
:100D280004D815789FB14CEA0505157001330132D6
:100D380001319C4214D006FA03F52D04ECD47F2926
:100D4800F4D8BEF13F0FF1D81578002FEBD001335E
:100D580009EA0505013201319C4202F8015CEAD139
:100D680058450EF1010EC0D1D8F80030544424493A
:100D7800DA68A4B28A422DD1802084421CD29B68B2
:100D8800204AA8F80440934221D14020019B834285
:100D980007D3D8F800301B4A9B68934229D13F23D8
:100DA8000193DDE90003A8F8063005B0BDE8F08F2F
:100DB800002005B0BDE8F08FDA6811498A4211D1E8
:100DC8007F24DCE798476AE74046984775E740463E
:100DD8009847DBE740469047D8F80030CDE7B8F8A9
:100DE80004A0C1E7404690470138D8F8003084B2E3
:100DF800C5E740469847013883B20193D1E700BF61
:100E0800B1090008AD0900082DE9F04F89B01D4669
:100E1800884606901046129C10F8013B13999DF8DD
:100E28005060009233B1002210F8013B0132002BD0
:100E3800FAD193B22A78687812FB03F302B21BB294
:100E480023EAE373082900F2A681DFE811F0010123
:100E580013011F01330141014F0166016F010900B0
:100E6800A18827880F44B4F90610FF1A0029BFB2D9
:100E7800C0F2FE806488069804EB6104C280A4EB8B
:100E880052028380078094B24480A64AD8F8003082
:100E980011460192DA688A4240F08B818020B8427C
:100EA80005D8DA6801998A4240F098817F279E4ADE
:100EB8009B68A8F804709342039240F08781402011
:100EC800A04207D8D8F80030039A9B68934240F0B4
:100ED80080813F24009BA8F8064093F800B06B7807
:100EE8002C7804936B680793BBF1000F00F0AC807B
:100EF800ABF12005EBB25E2B00F22C81D8F8003064
:100F0800019ADB68934240F028818020B8F80430C9
:100F180023449842C0F21E81D8F80030039A9B6897
:100F2800934240F01D814020B8F80610049A0291BF
:100F38008B189842C0F20E81002A00F01C8102FB37
:100F480005F56FF0004E079BAE441544CDF814B07C
:100F580003EB4E0E023BB8F804A003EB45030D4625
:100F68009B463EF8027FA4B305F007034FF0010C3F
:100F7800EA0851460CFA03FC0AF114034FFA8CFCF8
:100F880003EBC21200236FEA0C0942440DE07F29EB
:100F980006D83F2D04D8107896B14CEA000010709E
:100FA8000133013201319C4213D007FA03F00004E7
:100FB800EDD47F29F4D83F2DF2D81078002EECD04C
:100FC800013309EA0000013201319C4202F8010CA8
:100FD800EBD1F34505F10105C3D1DDF814B0D8F81C
:100FE80000200AEB04050199D368ADB28B4240F0AA
:100FF800BD808020854205D3D36801998B4240F09B
:10100800C3807F259368039AA8F80450934240F060
:10101800AA804020029B834208D3D8F80030039A64
:101028009B68934240F0AA803F230293029BA8F852
:101038000630009A13785B4506D112F801BF00927A
:10104800BBF1000F7FF454AF069809B0BDE8F08FEC
:10105800B4F9041027880029B8BF013107EB6107EC
:10106800B4F90610A7EB63070029BFB2BFF602AFB9
:101078000131FFE6B4F900700699B4F902400F8017
:10108800BFB24C80A4B28B80CA80FEE6B4F90410CB
:1010980027880029B4F90240B8BF013107EB61077E
:1010A80006998B80A7EB63034C80A4B29FB2CA80D9
:1010B8000F80EAE6A1882788B4F902400F44069910
:1010C8008B80FB1A4C80A4B29FB2CA800F80DCE6EA
:1010D800E78861883944B4F90070081A069984B21F
:1010E8000F808B80BFB2CA804C80CEE6B4F9041062
:1010F80027880029B8BF013107EB6107A7EB630711
:10110800B4F802C0BFB2E488069964448B80201A00
:10111800CA800F8084B24C80B7E62788A1880F4424
:10112800FF1AEDE7B1090008AD090008B4F9061087
:10113800B4F90070002964880698B8BF0131C280EC
:1011480004EB610407808380BFB2A4EB520294B21F
:1011580044809AE64FF0000B6BE740469847D5E687
:1011680040469847E0E64046984753E74046984748
:10117800D8F800203EE7B8F804A030E74046984782
:10118800013883B2029351E7404698470138D8F8AE
:10119800002085B236E7D8F800300024069A1349B3
:1011A800148054809480D480DA6801918A4205D0F2
:1011B800274640469047D8F8003070E69B680C4AAE
:1011C800A8F80440934203923FF484AE40469847FF
:1011D80076E640469847013884B27BE64046904719
:1011E8000138D8F8003087B261E600BFB1090008BD
:1011F800AD0900087F291ED83F2A1CD86BB1D30837
:101208004FF0010C02F0070201EBC3130CFA02F2D3
:10121800C1180B7D1A430A757047D3084FF0010CAB
:1012280002F0070201EBC3130CFA02FCC1180A7D95
:1012380022EA0C020A7570472DE9F04F83B05C1A58
:101248000C9E002C9DF83490A6EB0208B8BF6442AF
:10125800B8F1000FB8BFC8F100088B428CBF4FF03F
:10126800010A4FF0FF3A9642A4EB080C51D84FF010
:10127800FF357F2B019512D83F2E10D8F50806F0C0
:10128800070E012703EBC5150544B9F1000F47D038
:1012980007FA0EF795F814E047EA0E072F759642FD
:1012A80001D18B4229D0C8F100077F2914D83F2AE1
:1012B80012D8D50802F0070B4FF0010E01EBC51547
:1012C8000544B9F1000F1BD00EFA0BFE95F814B0C7
:1012D8004EEA0B0E85F814E0B7EB4C0F4FEA4C05BD
:1012E80002DAACEB080C5144AC4202DD019DA44487
:1012F8002A449942D9D19642D7D103B0BDE8F08F9C
:101308000EFA0BFB95F814E02EEA0B0E85F814E0A4
:10131800E2E701257F2B0195C5D83F2EAED9C2E75C
:1013280007FA0EFE2F7D964227EA0E072F75B8D0D2
:10133800B9E700BF000000002DE9F04F2DED068B46
:1013480083B01F4680460D469DF8503016460193DF
:10135800139B002BC0F22182129A134406EE103A16
:10136800DDED127AB8EEC66B9FEDCD4BB8EEE77B9C
:101378009FEDCD5B27EE047B26EE046B87EE050B15
:1013880086EE05ABF7EEC08BB0EE680A10F0DCFA1B
:1013980007EE907AB7EECAABF8EE679AB0EE408ADD
:1013A800B0EE680A10F094FD60EE698AB0EE4A0A61
:1013B80010F0CAFAB0EE409AB0EE4A0A10F088FD72
:1013C80020EE690A29EE888A29EE899A70EE687AF1
:1013D800F0EE006A39EE487A67EEA77AE7EE077A08
:1013E800F4EEE67AF1EE10FA06D5139BB42B40F32F
:1013F80096804FF0010901E04FF00009012478427E
:101408004FF0000C0095E31B214627462246A340D7
:10141800B9F1000F6AD1424206EE90CACCF1000140
:1014280007EE102AB8EEE66A07EE901A06EE900A62
:10143800B8EEC77A139A66EE084AF8EEE77AB42A45
:1014480027EE284AF8EEE66A67EE885A74EEC43A40
:1014580026EEA85A26EE096A66EE806A67EE897A51
:1014680027EE007AF5EEC03A40F3F280F1EE10FA7A
:1014780000F17F8176EE473A74EEC54AF5EEC03A40
:10148800F1EE10FAF5EEC04ACCBF01220022F1EECF
:1014980010FA00F1778136EE666A35EEC55AB5EE78
:1014A800C06AF1EE10FAB5EEC05ACCBF0121002196
:1014B800F1EE10FA00F16F8177EEE66AF5EEC06A98
:1014C800F1EE10FACCBF0127002775EEC45AF5EEED
:1014D800C05AF1EE10FA00F1478177EEC77AF5EEBF
:1014E800C07AF1EE10FACCBF01240024002A40F0A3
:1014F8008A80002964D1BFB9C4BB9C4558DB0CF174
:10150800010C03EB4C0E1CEB000F0EF1010E00F06A
:10151800C08098424FDB734600287FF779AF03B04D
:10152800BDEC068BBDE8F08F009DA6EB0C0E00EB22
:10153800050ABAF17F0FDFD8BEF13F0FDCD84FEABA
:10154800DE0B019D0AEBCB1A002D00F0B1800EF0E6
:10155800070BC2444FF0010E0EFA0BFE9AF814B0B6
:101568004EEA0B0E8AF814E0002CC6D0009DA6EBBC
:101578000C0EA5EB000ABAF17F0FBED8BEF13F0FE3
:10158800BBD84FEADE0B019D0AEBCB1A002D00F009
:10159800AE800EF0070BC2444FF0010E9C450EFAC8
:1015A8000BFE9AF814B04EEA0B0E8AF814E0A6DA8D
:1015B80098429E46AFDA01300EEB40030133ABE7A9
:1015C800009D0CEB060E00EB050ABAF17F0F92D8CE
:1015D800BEF13F0F8FD84FEADE0B019D0AEBCB1A05
:1015E800002D73D00EF0070BC2444FF0010E0EFA17
:1015F8000BFE9AF814B04EEA0B0E8AF814E0002F8E
:101608003FF47AAF90E7009D0CEB060EA5EB000ABD
:10161800BAF17F0F3FF66DAFBEF13F0F3FF669AFEE
:101628004FEADE0B019D0AEBCB1A002D6DD00EF0B0
:10163800070BC2444FF0010E0EFA0BFE9AF814B0D5
:101648004EEA0B0E8AF814E000293FF454AFB7E7CE
:10165800F1EE10FA7ED44A4674EEC54AF5EEC04A59
:10166800F1EE10FA6CD4002135EEC55AB5EEC05A29
:10167800F1EE10FA5AD4002775EEC45AF5EEC05AA6
:10168800F1EE10FA3FF529AF0024002A3FF431AFFC
:10169800B9E798428FDB00233BE700BFAFF3008038
:1016A8007A008BFCFA2109400000000000806640A7
:1016B800C2444FF0010B0EF0070E0BFA0EFE9AF81B
:1016C80014B02BEA0E0E8AF814E015E7C2444FF066
:1016D800010B0EF0070E0BFA0EFE9AF814B02BEA67
:1016E8000E0E8AF814E0002F3FF406AF1CE7C24440
:1016F8004FF0010B0EF0070E0BFA0EFE9AF814B01D
:101708002BEA0E0E8AF814E0F7E6C2444FF0010BFC
:101718000EF0070E0BFA0EFE9AF814B02BEA0E0E16
:101728008AF814E000293FF4E6AE49E777EEE66A66
:10173800F5EEC06AF1EE10FACCBF012700279BE74F
:1017480036EE666AB5EEC06AF1EE10FACCBF01213A
:10175800002189E776EE473AF5EEC03AF1EE10FA45
:10176800CCBF0122002277E70124002A3FF4C1AE52
:1017780049E774EEC54A0122F5EEC04AF1EE10FAC7
:101788007FF589AE35EEC55A0121B5EEC05AF1EEA6
:1017980010FA7FF591AE012797E6DDE9122313448D
:1017A80006EE102A1293139B5B421393D8E500BFF1
:1017B8002DE9F04F87B09DF84850109C2E460195B2
:1017C8009DF844509EB399422ED89946A24228D8F3
:1017D8007F29164694BF0023012308E09CF8148053
:1017E8004EEA080E8CF814E00136B44219D33F2EA5
:1017F800FAD8002BF8D14FEAD60C06F0070E4FF0B6
:10180800010801EBCC1C08FA0EFE8444002DE5D13A
:101818009CF814B001362BEA0E0AB4428CF814A0D6
:10182800E5D201318945D1D207B0BDE8F08FA3EBED
:101838000108B8F1000FB8BFC8F100089942C0F01C
:101848004E817F2B4FF0FF3A94BF002601263F2A96
:10185800009694BF002701270297A6B99FB9D6081A
:1018680002F0070C012703EBC6160644002D00F012
:10187800948107FA0CF796F814C047EA0C073775F5
:10188800002602960096994200F0978146469446B3
:101898008E46BEF17F0F16D8BCF13F0F13D84FEA22
:1018A800DC070CF0070B4FF001090EEBC7170744D4
:1018B800002D00F0398109FA0BF997F814B049EABC
:1018C8000B0987F81490770018BFD644B84502DD95
:1018D80046440CF1FF3C7345DBD16245D9D1002663
:1018E8000496A4EB0209009FB9F1000FB8BFC9F133
:1018F80000093F2C94BF00260126A242C9F1000826
:101908000396C0F02381002F40F05081002E40F054
:101918004D814FF0FF360096E60803EBC6160644E5
:10192800002D00F01E814FF0010C04F007070CFA9F
:1019380007F796F814C047EA0C0737750026039690
:10194800A24200F03D81C44616461F4605927F2FED
:1019580015D83F2E13D84FEAD60E06F0070B4FF0D6
:10196800010A07EBCE1E8644002D00F0E6800AFA35
:101978000BFA9EF814B04AEA0B0A8EF814A0B8EBDA
:101988004C0F4FEA4C0E02DAACEB090C013FBEF1EA
:10199800000F01D0009A1644BB42D8D1B442D6D128
:1019A800059AA1EB030EBEF1000FB8BFCEF1000EF1
:1019B8007F2994BF4FF0000A4FF0010A99428CBF6B
:1019C8004FF001094FF0FF39BAF1000F13D1039E10
:1019D8008EB9E60801EBC6160644002D00F0D38048
:1019E8004FF0010C04F007070CFA07F796F814C03B
:1019F80047EA0C073775049E26BB774626467F2B99
:101A080014D83F2E12D84FEAD60C06F0070B4FF029
:101A1800010803EBCC1C8444002D73D008FA0BF8A2
:101A28009CF814B048EA0B088CF814805FEA470C5D
:101A380018BF4B44E64501DD7744013E9942DED1AB
:101A4800B442DCD1A2EB040EBEF1000FB8BFCEF158
:101A5800000EA2428CBF4FF001084FF0FF38CEF1C4
:101A6800000CBAF1000F0ED1029B63B9D30802F043
:101A78000707012601EBC3130344002D7CD0BE40A9
:101A88001F7D3E431E75019B002B7FF4CDAE66463D
:101A98000B467F2B12D83F2C10D8E70804F0070A12
:101AA8004FF0010903EBC7170744A5B309FA0AF970
:101AB80097F814A049EA0A0987F81490BCEB460F76
:101AC8004FEA460702DAA6EB0E06013B07B144448B
:101AD8009942DED1A242DCD107B0BDE8F08F3F2A9F
:101AE8004FF0010A94BF002601267F2B029694BF6F
:101AF800002701270097002E7FF4C8AE002F3FF47F
:101B0800AEAEC3E608FA0BFB9CF8148028EA0B0873
:101B18008CF814808AE709FA0AFA97F8149029EAE7
:101B28000A0987F81490C9E709FA0BFB97F814908B
:101B380029EA0B0987F81490C5E60AFA0BFB9EF808
:101B480014A02AEA0B0A8EF814A018E797BB8EBBDC
:101B580001260096E60803EBC6160644002D7FF41E
:101B6800E2AE012704F0070C039507FA0CFC377D59
:101B780027EA0C073775E3E606FA07F71E7D26EA1B
:101B880007061E757FE7012704F0070C07FA0CFC0F
:101B9800377D27EA0C0737752DE707FA0CFC377DE8
:101BA800029527EA0C07009537756CE64FF0FF366B
:101BB8000096C5E601260096C5E60126049690E63D
:101BC80001260196EDE600BF84B02DE9F04182B010
:101BD8000125064604460DF124088572274688E843
:101BE8000E00BDF84C3026F8083F304601F000FFE3
:101BF800BDF84E30A57127F8043F384601F0F8FECD
:101C08004146204603F066FE0021384601F0DAFF1F
:101C18000A2004F079F82946384601F0D3FF0A2053
:101C280004F072F8AE23304600218DF8073001F039
:101C3800C9FF2A460DF107016423204603F0D0FEB0
:101C4800D523304600218DF8073001F0BBFF2A4626
:101C58000DF107016423204603F0C2FE80233046BD
:101C680000218DF8073001F0ADFF2A460DF107017C
:101C78006423204603F0B4FEA823304600218DF8E3
:101C8800073001F09FFF2A460DF107016423204623
:101C980003F0A6FE3F23304600218DF8073001F0FF
:101CA80091FF2A460DF107016423204603F098FEB0
:101CB800DA23304600218DF8073001F083FF2A46E9
:101CC8000DF107016423204603F08AFE12233046F3
:101CD80000218DF8073001F075FF2A460DF1070144
:101CE8006423204603F07CFE0021D32330460F46B0
:101CF8008DF8073001F066FF2A4664230DF10701CD
:101D0800204603F06DFE394630468DF8077001F025
:101D180059FF2A460DF107016423204603F060FEAF
:101D28004023394630468DF8073001F04BFF2A46EC
:101D38000DF107016423204603F052FEA62339461D
:101D480030468DF8073001F03DFF2A460DF10701B6
:101D58006423204603F044FEA423394630468DF818
:101D6800073001F02FFF2A460DF1070164232046B2
:101D780003F036FE8D23394630468DF8073001F0E2
:101D880021FF2A460DF107016423204603F028FEAF
:101D98001423394630468DF8073001F013FF2A46E0
:101DA8000DF107016423204603F01AFEA1233946EA
:101DB80030468DF8073001F005FF2A460DF107017E
:101DC8006423204603F00CFEC823394630468DF8BC
:101DD800073001F0F7FE2A460DF10701642320467B
:101DE80003F0FEFD8123394630468DF8073001F0B7
:101DF800E9FE2A460DF107016423204603F0F0FDB1
:101E08008F23394630468DF8073001F0DBFE2A462D
:101E18000DF107016423204603F0E2FDD92339467A
:101E280030468DF8073001F0CDFE2A460DF1070146
:101E38006423204603F0D4FD2523394630468DF827
:101E4800073001F0BFFE2A460DF107016423204642
:101E580003F0C6FDDB23394630468DF8073001F024
:101E6800B1FE2A460DF107016423204603F0B8FDB0
:101E78003423394630468DF8073001F0A3FE2A4650
:101E88000DF107016423204603F0AAFDAF2339466C
:101E980030468DF8073001F095FE64232A460DF18F
:101EA8000701204603F09CFD02B0BDE8F04104B0F4
:101EB800704700BF2DE980480021A7B0AA48022436
:101EC80000F0A6FB40F60632A84B0920DFF8C8A2AE
:101ED800F7EE008ADFF8C492F6EE009ADFF8C882BF
:101EE8009FEDA38A9FEDA39ADFF8C4B2A24EA34D3B
:101EF800CDE9102300F006FB03461E20ADF868303C
:101F080000F000FB002301210B220DF1400C14917D
:101F18000821ADF86A000DF16C0E1591ADF842205C
:101F2800CDE91633CDE912331EABCDE918441F466F
:101F3800934CBCE80F00AEE80F00BCE80F00AEE819
:101F48000F009CE807008EE807000FCF09976F463F
:101F58000FC70897099F97E80F00089F87E80F00A9
:101F6800884F1BAB07F108000ECBFFF72DFE13209F
:101F780000F0C8FAADF82C00142000F0C3FAADF850
:101F88003000122000F0BEFAADF83400764800F0B8
:101F9800D3FA0B995046DDE90C2301F073FC1020AD
:101FA80000F0B0FAADF83800112000F0ABFAADF847
:101FB8003C000F2000F0A6FAADF86C006A4800F06B
:101FC800BBFA1B9B4846DDE90E1201F05BFC6E4B29
:101FD80065481F6000F0B0FAF0EE407A4046B0EE77
:101FE800480A88ED028AC8ED019A40F2011788EE86
:101FF800A77AC8ED037A88ED059A88ED047A0FF080
:102008008BFC624B404688ED060A93ED000A4FF0C0
:102018000203A8F8247088F8003088ED020A0FF04F
:102028007BFC514888ED060A00F086FAF0EE407A0B
:10203800574AB0EE480A1046C2ED019A88EEA77AD0
:10204800C2ED037A82ED059A82ED028A82ED047A66
:102058000FF062FC4E4A4FF0020382ED060A10466A
:102068009BED000A97841746137082ED020A0FF061
:1020780053FC48493C4887ED060A00F059FA46489F
:1020880001F030FC454801F02DFC3378002B5CD082
:102098002968434A3C4800F033FAD5ED007A9FEDB1
:1020A800418AB0EE000AF8EEE70A0FF07DFD20EE57
:1020B800080A364B3C4883ED000A88ED020A0FF007
:1020C8002BFC94ED007AF0EE407AB0EE000AF8EEC0
:1020D800C70AC8ED067A0FF067FD20EE080A2C48FB
:1020E80007468BED000A80ED020A0FF015FC9AF8FE
:1020F8000C3087ED060ACBB19AF812307F2B15D138
:10210800214933780A7983F0010382F001023370A0
:102118000A7173B199F804300BB1D9F824302A68E0
:102128001344042B14DD01232B60A8E73378002B1C
:10213800F0D199F804200AB1D9F824302268134460
:10214800042B0ADD0123236099E72168174AA1E7D8
:10215800002B07DC04232B6091E7002BD8BF042356
:1021680023608CE72B608AE7880800240105060AAB
:102178000000C84200000000040000240C000024F5
:102188001400002424040024C408002408000024A7
:10219800F8080024C509000838080024600800244D
:1021A800E823010800002042D0080024E0230108A9
:1021B8001000002410B515480024154A154904607C
:1021C800446104620FF0B4FB1348144B104A1449DD
:1021D800846003600FF0ACFB124B0120124C1349D2
:1021E80018710B4A12480FF0A3FB094A0F4911480E
:1021F8000FF09EFB2146064A0F480FF099FB214637
:10220800034A0E48BDE810400FF092BB880800242E
:1022180000000024A109000824040024F823010870
:10222800A9090008C4080024A50900089D09000898
:102238003808002460080024D0080024F808002486
:102248002DE9F047162586B0012406468846DFF8B2
:102258008C90A04520D03768386883684B4516D1E4
:10226800402296F804C04FF4B4710023521BCDE904
:10227800011C00930B21D0F820A003233846D04737
:1022880001340A35052CE4D106B0BDE8F08738469C
:10229800984702463868E4E7002733684020196801
:1022A8008A684A4514D196F804E04FF4B47C421B7E
:1022B80018463B460137CDE901CE4FF0000CCDF86A
:1022C80000C0D1F820A00B21D047042FE5D1D7E7D3
:1022D800184605939047059B1968E4E7AD0900087F
:1022E8002DE9F043044600680E469046036885B021
:1022F8007B491A6923798A4283F0010340F0BC8044
:102308005B4214304FF48062D9B20FF0E9FF2568C0
:10231800DFF8E8912B68DA684A4540F089802A2777
:102328009B68AF806F4FBB4240F09B8003232068BF
:102338004146EB80026825796B4B0095956A0CCB7A
:10234800A84725682B689A68BA4240F0AA804FF0DF
:102358003608DA684A4540F0998003229B68AA80CB
:10236800BB4240F090804020804506D32B689B6894
:10237800BB4240F09D804FF03F08206821790268F9
:102388005A4BA5F8068000915949956A0CCBA84785
:1023980020463146FFF754FF2068564A03681B6BF6
:1023A800934241D100F1080600F1100500F114082C
:1023B800B024002728468DF80F400134394601F033
:1023C80001FC642301220DF10F013046E4B203F051
:1023D80007FB394628468DF80F7001F0F3FB012200
:1023E80064230DF10F01304603F0FAFA1023394641
:1023F80028468DF80F3001F0E5FB642301220DF12A
:102408000F01304603F0ECFA0121284601F0DAFB0F
:102418008022414664233046904403F0E1FAB82C08
:10242800C7D105B0BDE8F08305B0BDE8F043184753
:10243800314F28469047A7FB00372B68DA68C7F367
:102448004F074A451BD180208742FFF469AFDA68FD
:102458004A453ED17F279B68AF80224FBB423FF45D
:1024680065AF2846984703283FF660AF2B689B68FE
:10247800BB4223D13F235AE71946904747E72846EE
:1024880090472B68E0E7284698476DE7284690472D
:1024980003282B683FF661AFDA684A4513D17F22DB
:1024A8005CE7284690470A382B681FFA80F850E7FF
:1024B8002846984701381FFA80F85EE7284698476B
:1024C800013883B233E72846904701382B6882B237
:1024D80044E72846904701382B6887B220E700BFB9
:1024E800B5090008AD090008A001002498010024DE
:1024F8002C240108250A0008ABAAAAAAB1090008D9
:10250800FFF7EEBE1F2882B009D8084B03EB400244
:1025180013F81030507843EA002002B070470123C6
:102528000C2043EA002002B0704700BF30240108A5
:10253800143001F07FB900BF143001F077B900BF43
:10254800F0B5032399B000270125129306462C4BBA
:1025580009A81595CDE90E7340F20453ADF8403043
:10256800284BCDE91357099301F042FA09A801F065
:102578001BFB002836D1244B04AF04460090CDF84D
:1025880042301023394604958DF820301F4BCDE991
:102598001650CDE906506846059301F093FC0823D0
:1025A800009A01A909A8ADF804508DF806400994CD
:1025B8000295039300F0E4F800230EA9384630246E
:1025C800049302F049FA03224FF07E5309A906F159
:1025D80014000B930C93CDE90942049A01F0EAF830
:1025E80019B0F0BD40F60132074B169704AFADF8AD
:1025F80024200998CDF84230179500F081F8DBE7E0
:102608000402040403030001040604030704010B85
:102618002DE9F04304462DED028B83B0002948D004
:10262800012140F2011200230091ADF804208DF839
:102638000630304A0126304B271D304904F129085D
:10264800626040F20272A36040F60663E16004F142
:1026580025092682A4F8252084F82760A4F82930C3
:1026680084F82B6003F0BEFC6946054648B304F1C4
:1026780030008DF8066003F013FC072D34D104F107
:1026880014052046FFF75CFF284601F0CFF82846DE
:10269800B0EE408A01F0C6F8D0ED007AF8EE677A1D
:1026A80088EE277A84ED0E7A03B0BDEC028BBDE884
:1026B800F08340F2011300918DF80610ADF8043054
:1026C800B7E704F1300003F0EBFB3946204601F090
:1026D80043FE484601F08CF9404601F089F904F1BF
:1026E800120000F077F9CAE73946204601F034FEB7
:1026F800C5E700BF0508050905070506050A06061A
:1027080010B584B003460124ADF8040003A8ADF861
:102718000C30ADF80E4001F06BF9214603A801F02A
:1027280051FA204603F0F0FA002103A801F04AFA12
:10273800204603F0E9FA214603A801F043FA04B061
:1027480010BD00BF10B5C2F3002384B00C46017C55
:102758008DF80D2043EA4402FA2402238DF80C2058
:1027680003AA009401F044FC18B10124204604B0E7
:1027780010BD04460A2003F0C7FA204604B010BD75
:10278800034670B543F8042B044684B007C983E8B0
:102798000700A37983B91A210B461E22FA25237450
:1027A8002046ADF80C20022303AA009501F020FC76
:1027B80028B1012004B070BD1B210B46EDE70A20AB
:1027C80003F0A2FA4FF4B85200950223ADF80C209A
:1027D800204603AA217C01F00BFC0028E9D10A203D
:1027E80003F092FA41F2027200950223ADF80C2030
:1027F800204603AA217C01F0FBFB0028D9D10A203E
:1028080003F082FA042200950223ADF80C2020463A
:1028180003AA217C01F0ECFB0028CAD10A2003F0AE
:1028280073FA062200950223ADF80C20204603AA6D
:10283800217C01F0DDFB0028BBD10A2003F064FAFB
:1028480041F2082200950223ADF80C20204603AA85
:10285800217C01F0CDFB0028ABD10A20064603F00D
:1028680053FA0095022303AA217C2046ADF80C6098
:1028780001F0BEFB00289CD1304603F045FA0095D4
:1028880022790C232046002A8DF80C3003AA4FF039
:10289800020314BF622142218DF80D10217C01F042
:1028A800A7FB002885D1304603F02EFA2279D4E917
:1028B80002310B43DBB20AB943F0400362790AB133
:1028C80043F020030E22FA258DF80D30204600959E
:1028D80002238DF80C2003AA217C01F089FB002833
:1028E8007FF467AF0A2003F00FFA10220095022345
:1028F800ADF80C20204603AA217C01F079FB0028C2
:102908007FF457AF0A2003F0FFF912210095022344
:10291800ADF80C1003AA217C204601F069FB0028C1
:102928007FF447AF0A2003F0EFF90122092120467E
:10293800FFF708FF003818BF01203BE7F0B5102368
:1029480087B0234C012200250126002702A9204632
:102958000195CDE902234FF48052CDE9046709F0CF
:1029680019FB642003F0E4FD02A94FF480522046CD
:10297800CDE9046702261027CDE9026709F00AFBB2
:102988000322102302A92046CDE9022300230422B2
:10299800CDE904234FF4805209F0FCFA40F23223C7
:1029A800042202A9019310232046CDE90223019AAB
:1029B800012305924FF48052049309F0EBFA40F694
:1029C8000601204609F006FB284607B0F0BD00BF07
:1029D800280900241C4B00221C494FF0400C30B53C
:1029E800054689B00220596007219A601A620124BD
:1029F800DA620A224FF4006EDC6006922022CDE9EA
:102A0800000104200821CDE9020103201021CDE9AD
:102A1800040108206946C3E904024FF4C072181D76
:102A2800C3E906C24FF48052C3E909E209F088FA03
:102A380038B92846FFF782FF003818BF012009B0CF
:102A480030BD204609B030BD240900244041005261
:102A5800614A0021D0B513688EB00A91002B40F06E
:102A6800B9805E4B01214FF683700C24116002215E
:102A7800D3F8D4200026032742F48052C3F8D42088
:102A8800D3F8D42002F480520092009AD3F8E020C0
:102A980042F01002C3F8E020D3F8E02002F0100260
:102AA8000192019AD3F8E02042F04002C3F8E020F6
:102AB800D3F8E02002F040020292029AD3F8E02014
:102AC80042F00802C3F8E020D3F8E02002F0080240
:102AD8000392039AD3F8E02042F48072C3F8E0200E
:102AE800D3F8E02002F480720492049AD3F8E0202C
:102AF80042F08002C3F8E020D3F8E02002F0800220
:102B08000592059AD3F8E02042F02002C3F8E020AD
:102B1800D3F8E02002F020020692069AD3F8E020CB
:102B280042F00402C3F8E020D3F8E0300C9403F03C
:102B3800040307930323079A0B93CDE9080108A917
:102B4800274804F09BFD48F23712022308A92548BC
:102B58000C94CDE90823CDE90A6704F08FFD4CF207
:102B68000372022308A920480C94CDE90823CDE973
:102B78000A6704F083FD40F2FF62022308A91B489C
:102B88000C94CDE90823CDE90A6704F077FD4FF6E8
:102B98000C72022308A916480C94CDE90823CDE944
:102BA8000A6704F06BFD4FF63F02022308A911489B
:102BB8000C94CDE90823CDE90A6704F05FFD2022D3
:102BC800022308A90A480C94CDE90A67CDE908232D
:102BD80004F054FD0EB0D0BD200900240044025872
:102BE8000010025800180258000C02580020025821
:102BF800001C0258001402582DE9F04FDFF8108429
:102C080006460D46144608F118002DED028B89B0D2
:102C180000AF02F019F8D8F8183073B3D8F81C30A0
:102C2800D8F80490002B43690BBF4FF0080A4FF007
:102C3800100A4FF0020B4FF0040BB9F1000F2AD025
:102C4800A200EA46012B02F1070222F00702ADEBCF
:102C5800020D6846ADEB020D694600F03F81022B7C
:102C680000F0D680002B6FD02246C847D5462437BF
:102C7800BD46BDEC028BBDE8F08FD8F81C30002BA8
:102C8800F5D0D8F804904FF0080A4FF0020B4369CA
:102C9800B9F1000FD4D1FB61D8F80030BB61002B2B
:102CA800E5D0D54802F042F86B46BBF1020F7861D7
:102CB80008EE103AFB6900F083816A465146A2EBA0
:102CC800C40295466200EA46B2FBFBF2AAEBC400D6
:102CD80085460AEB8200EE46F861ADEB010DF86916
:102CE8000EEB820CC7F810C0EC46ADEB010D00EB03
:102CF8008201CCF80400CCF8081001EB8201386995
:102D0800E946CCF80C1000EB8201CCF800A001EBEE
:102D18008202C9E900E0C9E90212012B00F06483CC
:102D2800022B00F06C82002B00F08081620849467B
:102D38006046BB69984718EE103A24379D46BD4651
:102D4800BDEC028BBDE8F08F002C8DD01A46D8ED73
:102D58000C6A9FEDB27A8446331D36F922E00CF1F5
:102D6800080C07EE90EA33F922E00232F8EEE77A2F
:102D7800944267EE877A67EEA67A4CED027A07EE00
:102D880090EAF8EEE77A67EE877A67EEA67A4CED76
:102D9800017AE2D8F9612246C847984ED8ED0D6A03
:102DA8000020F9692B1D9FED9E7A9FED9E6ADFED4D
:102DB8009E5A22E0F4EEC67AF1EE10FAC0F2C88408
:102DC80047F6FE72D1ED017A45F8202066EEA77A23
:102DD800F4EEC77AF1EE10FA40F2F080F4EEC67A1B
:102DE800F1EE10FAC0F2D58447F6FE7243F82020BF
:102DF8000230083184427FF639AFD1ED007A66EEB1
:102E0800A77AF4EEC77AF1EE10FAD3D83246D9E7AA
:102E1800002C3FF429AFD8ED0C6A84469FED787AF0
:102E28000022331D8E4656F822100CF1080C07EECE
:102E3800901A53F822100232F8EEE77A944267EEBD
:102E4800877A67EEA67A4CED027A07EE901AF8EECA
:102E5800E77A67EE877A67EEA67A4CED017AE2D8D0
:102E680071462246C7F81CE0C847664ED8ED0D6A81
:102E78000020F9692B1D9FED6A7A9FED6A6ADFF8D9
:102E880094C120E0F4EEC67AF1EE10FAC0F279842B
:102E98003246D1ED017A45F8202066EEA77AF4EEA5
:102EA800C77AF1EE10FA40F28780F4EEC67AF1EEB6
:102EB80010FAC0F25E84324643F82020023008310E
:102EC80084427FF6D3AED1ED007A66EEA77AF4EEAF
:102ED800C77AF1EE10FAD5D86246DAE7002C3FF44B
:102EE800C3AED8ED0C6A86469FED477A4FF0000CCA
:102EF800331D56F82C200EF1080E82F40002A2F5BC
:102F0800000207EE902A53F82C200CF1020CF8EE80
:102F1800E77A82F400026445A2F5000267EE877A38
:102F280067EEA67A4EED027A07EE902AF8EEE77A77
:102F380067EE877A67EEA67A4EED017AD9D8F961FD
:102F48002246C847314ED8ED0D6A0020F9692B1D7D
:102F58009FED337A9FED336ADFF8BCC01FE0F4EED3
:102F6800C67AF1EE10FAC0F2FC833246D1ED017A4E
:102F780045F8202066EEA77AF4EEC77AF1EE10FA4B
:102F880018D9F4EEC67AF1EE10FAC0F2DA833246B6
:102F980043F820200230083184427FF667AED1ED35
:102FA800007A66EEA77AF4EEC77AF1EE10FAD6D870
:102FB8006246DBE76246EBE762467DE7324615E7A5
:102FC800A100D6466208073121F00701ADEB010DDB
:102FD800EA46ADEB010D6946ADEB0E0D0AEB82003A
:102FE800EC46ADEB0E0D01EB8202F861E946CCE947
:102FF80000A0C9E9001290E6780900240280FFFFCA
:10300800000000300082FF7F0000003482FF7F0054
:103018005C090024007E00807E0080FF00000038EC
:1030280004FF7FBF04FF7F3F00FEFF46002C00F037
:10303800C982BBF1020FD8F8242000F0FA8279691E
:10304800C7F8049002EB810E5FED0C5A8A00DCF899
:1030580008100EF104007A611A46DCF80C303B6166
:10306800331DD7F810903D61FD69C7E902CB8C4646
:10307800834636F92210D8ED0C7A06EE101A33F989
:10308800221006EE901A3EF92210B8EEC66A07EE34
:10309800101AF8EEE66A3BF92210B8EEC77A26EE67
:1030A800256A66EEA56A27EE257A26EE276A66EE79
:1030B800A76A27EE277A07EE901A51080232F8EE2F
:1030C800E77A0AEB8100944280ED006A05EB810003
:1030D80067EEA57AC0ED006A0CEB810009EB81016F
:1030E80080ED007A98ED0C7A67EE877AC1ED007A68
:1030F800BFD8D7F804903D69D7E902CB604662088B
:10310800BB6949469847D8F82C307A69D8ED0D6ADA
:103118001A441FED3D7A1FED3D6A2B1D904602F1C2
:10312800040A5FED3F5A0022A84ED9E900EC51E0AD
:10313800F4EEC67AF1EE10FAC0F2C78247F6FE70D6
:1031480045F822000CEB0100D0ED007A66EEA77A74
:10315800F4EEC77AF1EE10FA4BD9F4EEC67AF1EE36
:1031680010FAC0F2BA8247F6FE70BBF1020F43F8BC
:1031780022002BD0D9F808000844D0ED007A66EE7A
:10318800A77AF4EEC77AF1EE10FA36D9F4EEC67AD9
:10319800F1EE10FAC0F2CD8247F6FE7048F8220030
:1031A800D9F80C000144D1ED007A66EEA77AF4EE66
:1031B800C77AF1EE10FA1ED9F4EEC67AF1EE10FADB
:1031C800C0F2AF8247F6FE714AF8221002329442EA
:1031D8007FF6B1AD51080EEB81008900D0ED007A81
:1031E80066EEA77AF4EEC77AF1EE10FAA0D8304668
:1031F800A6E73046B9E73146E6E73046CEE7002C89
:1032080000F0E081BBF1020FD8F8243000F0E18132
:103218007A69DCF8081003EB820EC7F80490930073
:10322800DFED6B5A0EF1040000227B61DCF80C30F4
:103238003B61331DD7F810903D61FD69C7E902CBAA
:103248008C46834656F82210D8ED0C7A07EE101AF1
:1032580053F82210B8EEC76A07EE101A5EF822106B
:10326800F8EEC76A07EE101A26EE256A5BF82210F8
:10327800B8EEC77A66EEA56A26EE276A27EE257AA3
:1032880066EEA76A27EE277A07EE901A51080232EF
:10329800F8EEE77A0AEB8100944280ED006A05EBCC
:1032A800810067EEA57AC0ED006A0CEB810009EB9E
:1032B800810180ED007A98ED0C7A67EE877AC1ED8E
:1032C800007ABFD8D7F804903D69D7E902CB6046A9
:1032D8006208BB6949469847D8F82C307A69D8ED16
:1032E8000D6A1A449FED3E7A9FED3E6A131D924681
:1032F800DFF8E4C00022FB612B1D364ED9E9008EB1
:103308004EE0F4EEC67AF1EE10FAC0F2FC813046D7
:1033180045F822000EEB0100D0ED007A66EEA77AA0
:10332800F4EEC77AF1EE10FA49D9F4EEC67AF1EE66
:1033380010FAC0F2EF813046BBF1020F43F82200C9
:103348002AD0D9F808000844D0ED007A66EEA77AAA
:10335800F4EEC77AF1EE10FA35D9F4EEC67AF1EE4A
:1033680010FAC0F2C98130464AF82200D9F80C0098
:103378000144D1ED007A66EEA77AF4EEC77AF1EE51
:1033880010FA1ED9F4EEC67AF1EE10FAC0F2AD8149
:103398003146F86940F82210023294427FF6CBACED
:1033A800510808EB81008900D0ED007A66EEA77A13
:1033B800F4EEC77AF1EE10FAA3D86046A8E76046A3
:1033C800BAE76146E5E76046CEE700BF0280FFFF47
:1033D800000000300082FF7F007E00800000003483
:1033E80004FF7FBF04FF7F3F002C00F0EB807A6969
:1033F8000021D8F82430C7F8109003EB820ED7F8D4
:103408001C909300FD610EF104021FED0C6A7B61B4
:10341800331D154656F821204808D8ED0C6ABBF133
:10342800020F82F40002A2F5000207EE902A53F878
:10343800212082F40002B8EEE77AA2F5000227EE16
:10344800067A07EE902A0AEB8002F8EEE77A27EE72
:10345800267A67EE867A82ED007A09EB80024FEAD7
:10346800800067EEA67AC2ED007A27D05EF82120A8
:1034780082F40002A2F5000207EE902A55F82120F6
:1034880082F40002B8EEE77AA2F5000227EE067A87
:1034980007EE902ADCF80820F8EEE77A024427EED7
:1034A800267A67EE867A82ED007A98ED0C7ADCF857
:1034B8000C2067EE877A0244C2ED007A02318C4212
:1034C800A8D8D7F8109060466208BB694946FD69DC
:1034D8009847D8F82C307A69D8ED0D6A1A441FED50
:1034E800407A1FED406A131D9246DFF8C4C20022DD
:1034F800FB612B1DAB4ED9E9008E4EE0F4EEC67A87
:10350800F1EE10FAC0F2C580304645F822000EEB05
:103518000100D0ED007A66EEA77AF4EEC77AF1EEF4
:1035280010FA49D9F4EEC67AF1EE10FAC0F2BF806B
:103538003046BBF1020F43F822002AD0D9F8080020
:103548000844D0ED007A66EEA77AF4EEC77AF1EE79
:1035580010FA35D9F4EEC67AF1EE10FAC0F2AE8060
:1035680030464AF82200D9F80C000144D1ED007A1F
:1035780066EEA77AF4EEC77AF1EE10FA1ED9F4EEE9
:10358800C67AF1EE10FAC0F28B803146F86940F83D
:103598002210023294427FF6CEAB510808EB81002C
:1035A8008900D0ED007A66EEA77AF4EEC77AF1EEDC
:1035B80010FAA3D86046A8E76046BAE76146E5E78F
:1035C8006046CEE7224649466046BB699847FFF702
:1035D800B2BBC7F810B0002298ED0C6A331DDFEDBE
:1035E800726AD7F81CB0786956F8221007EE901A5C
:1035F80053F82210B8EEE77A07EE901A5108023213
:10360800F8EEE77A27EE267A0AEB810E94420BEB66
:10361800810167EEA67A27EE067A67EE867A8EED46
:10362800007AC1ED007ADFD88300D7F810B07B614B
:103638004DE61A46C7F810B098ED0C6A331DDFED59
:103648005B6AD7F81CB0786936F9221007EE101AB1
:1036580033F9221007EE901AB8EEC77A51080232F1
:10366800F8EEE77A27EE267A0AEB810E94420BEB06
:10367800810167EEA67A27EE067A67EE867A8EEDE6
:10368800007AC1ED007ADFD88300D7F810B07B61EB
:1036980034E5F0EE675AFEEEE45A15EE900A34E788
:1036A800F0EE675AFEEEE45A15EE901A6EE7F0EE69
:1036B800675AFEEEE45A15EE900A3AE7F0EE675ABA
:1036C800FEEEE45A15EE900A4BE767EEA57AFDEE9A
:1036D800E77A17EE900A00B232E567EEA57AFDEEBA
:1036E800E77A17EE900A00B23FE5F0EE675AFEEE71
:1036F800E05A15EE901A4CE6F0EE675AFEEEE05AE4
:1037080015EE900A30E6F0EE675AFEEEE05A15EE36
:10371800900AFDE5F0EE675AFEEEE05A15EE900AC3
:103728000AE667EEA57AFDEEE77A17EE901A09B277
:103738004AE567EEA57AFDEEE77A17EE900A00B241
:103748002CE5F0EE675AFEEEE45A15EE902A1FE4D7
:1037580067EEA57AFDEEE77A17EE902A12B2FFF728
:1037680031BBF0EE675AFEEEE45A15EE902AFFF7E9
:10377800FDBBF0EE675AFEEEE05A15EE902AFFF711
:103788009BBBF0EE675AFEEEE05A15EE902AFFF763
:1037980080BB67EEA57AFDEEE77A17EE902A12B2A3
:1037A800FFF724BB82FF7F000000003000000038D4
:1037B8007E0080FF30B5184C154685B0046004F1D2
:1037C800080EEC460FC98EE80F00D4ED047AF5EE2A
:1037D800C07A8CE80F00F1EE10FA1ADDB7EE006A35
:1037E80094ED057A27EE277AC6EE276A84ED0D7ADE
:1037F800C4ED0C6A6DB1204640F8185F01F024FA58
:10380800064903690020064A2162A262E36005B006
:1038180030BD012005B030BD5C0900240020003017
:103828000000003000680830704700BF006818309A
:1038380001F06ABA30B5046883B008480D46A36839
:10384800A26A216A9B00009004F1180001F0FEF9B9
:103858000020C4E9000503B030BD00BF012C0008FA
:1038680010B4074B4FF07E51302400220320196119
:103878009C60D8605DF8044B5961C3E90622704723
:103888005C09002430B585B004460025ADF80C105D
:10389800ADF80820ADF8043002F034FABDF80C2079
:1038A8004FF48073206004F118002283BDF80820CB
:1038B8006383E383A283257100F09AF804F11C0066
:1038C80000F096F89FED060A019904F1080000F04F
:1038D80047F84FF6FF736562238405B030BD00BF1B
:1038E80000000000F8B5044602F00CFA0026236830
:1038F8002671834205D104F10800BDE8F84000F0C4
:1039080049B8012794F82050206004F11800BD4000
:10391800277100F049F96DB2284394F82150BD4051
:1039280084F8200004F11C0000F03EF994F82030DF
:103938006DB2666203F003032843022BC0B284F819
:10394800210009D000F003000228D4D1002BD2D1E5
:103958004FF0FF336362CEE78307CCD16762CAE7D3
:1039680070B5044682B0C1F30726CDB2ADF8041095
:1039780002F0C8F94FF480724FF001232060A01DB7
:10398800A571A280E671A36002B0BDE8704000F0A6
:103998002FB800BF38B5044602F0B4F900222368F6
:1039A8002271834210D00122A57AE37A95402060E3
:1039B8002271A01D6DB243B900F0F6F840B2284359
:1039C800C0B27F28A0720AD038BD00F0EDF8B0FA76
:1039D80080F040092843C0B27F28A072F4D102F0D9
:1039E80091F907EE900AF8EE677AC4ED037A38BDCC
:1039F8008378022B30B504468FB037D0032B33D0F1
:103A0800012B31D000230A93E378012B2AD0022B13
:103A180028D000230B93002320460C9302F066FC69
:103A28000546204602F06AFC23780990082B13D833
:103A3800DFE803F01F3245586B7E91A40500594B0F
:103A4800D3F8E02042F48072C3F8E020D3F8E030E5
:103A580003F480730893089B09A9284603F00EFE17
:103A68000FB030BD0B93D6E70A93CDE711230A9325
:103A7800CAE74C4B09A92846D3F8E02042F00102D6
:103A8800C3F8E020D3F8E03003F001030093009B73
:103A980003F0F4FD0FB030BD424B09A92846D3F816
:103AA800E02042F00202C3F8E020D3F8E03003F04F
:103AB80002030193019B03F0E1FD0FB030BD394BC8
:103AC80009A92846D3F8E02042F00402C3F8E02010
:103AD800D3F8E03003F004030293029B03F0CEFD19
:103AE8000FB030BD2F4B09A92846D3F8E02042F08B
:103AF8000802C3F8E020D3F8E03003F0080303938A
:103B0800039B03F0BBFD0FB030BD264B09A9284627
:103B1800D3F8E02042F01002C3F8E020D3F8E030F8
:103B280003F010030493049B03F0A8FD0FB030BD0D
:103B38001C4B09A92846D3F8E02042F02002C3F81C
:103B4800E020D3F8E03003F020030593059B03F051
:103B580095FD0FB030BD134B09A92846D3F8E020D6
:103B680042F04002C3F8E020D3F8E03003F040030D
:103B78000693069B03F082FD0FB030BD094B09A9DF
:103B88002846D3F8E02042F08002C3F8E020D3F8BA
:103B9800E03003F080030793079B03F06FFD0FB03D
:103BA80030BD00BF0044025838B5054602F09EFB00
:103BB8000446284602F0A2FB01462046BDE83840EC
:103BC80003F064BF70B506460D4602F08FFB04464D
:103BD800304602F093FB2A1E0146204618BF0122F8
:103BE800BDE8704003F058BF0023122270B586B0BC
:103BF800CDE9022304930368032B01D8042305931A
:103C0800061D841D304602F071FB0546304602F061
:103C180075FB034601A92846019303F02FFD2046B2
:103C280002F064FB034620461C4602F067FB01A92C
:103C380003462046019303F021FD06B070BD00BF86
:103C4800634A0368934210B58CB028D0614A934206
:103C580058D0614A934200F09480604A934201D060
:103C68000CB010BD5E4C5F48D4F8E03043F002035E
:103C7800C4F8E030D4F8E03003F002030A930A9B5A
:103C8800FFF7B2FFD4F8F43043F08003C4F8F430FF
:103C9800D4F8F43003F080030B930B9BE0E7504C0F
:103CA8005148D4F8E03043F00203C4F8E030D4F8C7
:103CB800E03003F002030193019BFFF795FFD4F86E
:103CC800E83000221F2043F400131146C4F8E830FE
:103CD800D4F8E83003F400130293029BD4F8D830E8
:103CE80043F00103C4F8D830D4F8D83003F0010306
:103CF8000393039B02F046FC1F200CB0BDE8104064
:103D080002F07EBC364C3948D4F8E03043F08003EA
:103D1800C4F8E030D4F8E03003F080030493049B47
:103D2800D4F8E03043F00203C4F8E030D4F8E030CF
:103D380003F002030593059BFFF756FFD4F8E8301C
:103D48000022212043F480031146C4F8E830D4F857
:103D5800E83003F480030693069BD4F8D83043F088
:103D68000103C4F8D830D4F8D83003F0010307931E
:103D7800079B02F007FC21200CB0BDE8104002F0C0
:103D88003FBC1B48FFF730FF154B00224820D3F8F3
:103D9800E840114644F40004C3F8E840D3F8E8408A
:103DA80004F400040894089CD3F8D84044F00104B3
:103DB800C3F8D840D3F8D83003F001030993099B1E
:103DC80002F0E0FB48200CB0BDE8104002F018BC3F
:103DD8000054004000580040005C0040001C00589F
:103DE80000440258200C002498090024700A00247A
:103DF800480B00242DE9F0431A4B87B000254FF0FB
:103E080010099E46EC46184BFF22E04667461A709A
:103E18000EF118060EF13004CDE90055CDE9025532
:103E2800ADF80090BCE80F00CDE90455AEE80F00EE
:103E38009CE803000095ADF800908EE80300B8E810
:103E48000F000FC69CE803000095ADF8009086E8C7
:103E580003000FCF0FC49CE8030084E8030007B0F9
:103E6800BDE8F083180000249409002410B5EFF38E
:103E7800108472B6084B1A78120602D504B962B6D5
:103E880010BD1B78D82205485BB202FB0300143032
:103E980003F0A2F8F2E700BF94090024980900246F
:103EA800014804F091BC00BF240A0024014804F032
:103EB8008BBC00BFFC0A0024014804F085BC00BF8D
:103EC800D40B00242DE9F0430F68D8243F4D85B06A
:103ED80007FB04F4032F05EB0403036040DCCB6805
:103EE8000E46012B3CD84DD04FF0D808B646DFF827
:103EF800FC9008FB0758BEE80F00C446ACE80F006A
:103F0800DEF800300DF1100ECCF80030D8F808C0FB
:103F180099E80F000EE90F000EEB8703BCF1010FC3
:103F280053F8103CC8F88C3031D0BCF1020F42D0A5
:103F3800BCF1000F35D0317C8C34D823002201200D
:103F48002C4403FB07534900C3E92602C3F8941025
:103F58002046C3E92822C3E92A2204F027FA18B127
:103F6800012005B0BDE8F0830146204604F038FC86
:103F78000028F5D10146204604F05CFC003818BF43
:103F88000120EEE70B7C103B672BADD9E8E702F088
:103F980027F80F4B98420CBF0E4B0F4BC8F89030C8
:103FA800C9E702F01DF80A4B98420CBF0B4B0C4BAB
:103FB800C8F89030BFE702F013F8054B98420CBFE1
:103FC800084B094BC8F89030B5E700BF98090024A2
:103FD800000E27072D0FB0303211D0205F439060BC
:103FE8008A62E030200BA0101A098010AC23010867
:103FF8002DE9F041D0F8008082B00D4617461E46E4
:1040080008F18C04204604F0E7FB2028FAD1D8F800
:104018000C3073B96D002046089C33463A46A9B265
:10402800009404F019FA003818BF012002B0BDE866
:10403800F081089B32463946204604F0E1FAF2E75F
:10404800044B10221A7483F8E82083F8C02183F8FF
:10405800982270479809002430B5002395B04FF492
:104068008071062204460B9306921393CDE90C1334
:10407800CDE90E33CDE9113301F0B4FF07282BD079
:1040880004F1100541F2883206A9284605F0E4F942
:1040980028B10123184684F85C3015B030BD0222DF
:1040A800022306A92846CDE9002310220123CDE9E1
:1040B800022300224FF48003CDE9042305224FF0A8
:1040C800807306926A460F9341F2883305F030FBFD
:1040D8000028DED115B030BD0323012084F85C3000
:1040E80015B030BD0000000070B50023A4B04FF03B
:1040F80080724FF480750446ADF806300D93CDE913
:1041080010320122CDE90E53CDE91223CDE9143343
:10411800002943D0F02300F1100508AEADF80630B1
:10412800C02341F2883231462846089305F094F9B5
:1041380028B10123184684F85C3024B070BD41F2E0
:1041480088320DF10601284605F0F0F903460028EB
:10415800EFD105224FF480711E93284616924FF036
:1041680080721B9321931F9202AA9FED1F7BCDE9BA
:104178001C13CDE922338DED027B9FED1D7B41F2AF
:10418800883316A98DED047B9FED1B7B8DED067B97
:1041980005F0CEFA0028CCD124B070BD00F110058E
:1041A80008AE612341F2883231462846089305F06B
:1041B80053F90028BDD141F288320DF10601284695
:1041C80005F032FA0028B4D1BDF80630204623F0B5
:1041D800780343F04003ADF80630FFF73DFF0028B1
:1041E8009ED0A6E7AFF300800000000001000000A9
:1041F8001000000001000000000000000000400066
:104208002DE9F04F00234FF4807501264FF0807898
:1042180004462DED028BABB08DF807301393219334
:10422800299314950E96CDF85C80CDE91533CDE928
:104238001863CDE91A33CDE92253CDE92433CDE90A
:10424800273306231C9301F0CDFE072808D004F17C
:10425800100741F288321CA9384605F0FDF840B134
:104268000123184684F85C302BB0BDEC028BBDE806
:10427800F08F4FF0020A4FF0020B4FF0050941F2A0
:10428800883308AA1CA93846CDF89480CDF87090D8
:104298009FED2D8BCDE908AB4FF0000A4FF4800B52
:1042A8008DED0A8BCDE90CAB05F042FA0028D7D189
:1042B80041F2883238460EA905F0CEF80028CFD151
:1042C800402341F288320DF1070138468DF8073056
:1042D80005F02CF90028C3D141F288330EA902AAAF
:1042E8003846CDF83890CDF85C809FED197B8DED80
:1042F800048BCDE906AB8DED027B05F019FA034678
:104308000028ADD1CDF870904FF00109CDF8948018
:104318004FF00008219308AA29931CA93846229532
:10432800CDE92333CDE9273341F288338DED0A8B6C
:10433800CDE90CABCDE9088905F0FAF9002893D04E
:10434800304684F85C608FE7100000000100000030
:1043580040000000400000002DE9F043624CA3B08B
:104368000D46046001F03EFE072800F0A980286889
:1043780023466968AA6807C31E46AB8926F8043B2A
:104388003046257B677B05F049F8E0B9574B012D8E
:104398004FF00108E061236114BF4FF480134FF41C
:1043A8000003C4E9058893FAA3F3B3FA83F34FF43F
:1043B8008079013BC4F82490C4E90B00304623629D
:1043C80004F0C0FF38B10122134684F85C20184677
:1043D80023B0BDE8F08366230B90139041F2883236
:1043E80006A90693CDE90C90CDE90E00CDE91100A0
:1043F800304605F031F80028E5D1992341F288329A
:1044080006A93046069305F027F80028DBD10523D6
:104418001C9019906A4614934FF08073219014A948
:104428001D9341F288339FED2A7BCDE91A90CDE99F
:104438001F008DED007B9FED287B30468DED027BC4
:104448009FED277B8DED047B05F072F90028BAD12A
:1044580029462046FFF748FE0028B4D12046FFF73A
:10446800CFFE03460028AED1002FB0D118933046B6
:104478000027002606AA14A9CDF86890CDE91F33B5
:10448800EB2314934FF440631B934FF4005317939B
:104498004FF440431C93A0231693062319934FF01F
:1044A800805321934FF04073CDE906671D9305F0C3
:1044B800B7F9034600288AD0434684F85C8086E72B
:1044C80001230322184684F85C2023B0BDE8F0835A
:1044D80000000000010000001000000001000000C2
:1044E8000000000000004000F80C002400500052BA
:1044F8002DE9F04F8FB0414B0024026800AF9A427B
:104508007C63C7E90944C7E90B4403D03C37BD467F
:10451800BDE8F08F3A4B40F609213A48EB46D3F80C
:10452800D42007F11C0607F1220A4FF0020942F4D1
:1045380080424FF00308C3F8D420D3F8D42002F403
:104548008042BA60BA68D3F8E02042F04002C3F86B
:10455800E020D3F8E02002F04002FA60FA68D3F8CD
:10456800E02042F02002C3F8E020D3F8E02002F077
:1045780020023A613A69D3F8E02042F01002C3F809
:10458800E020D3F8E02002F010027A617A69D3F8CB
:10459800E02042F00202C3F8E020D3F8E030F861EE
:1045A80003F002033984BB61174B7B60BB697B68EE
:1045B80053F8040F7B6001F099FE7B680546186884
:1045C80001F09CFE16F8013B786207F124012846A9
:1045D800C7F830807B63C7E90A9403F04FF8564563
:1045E800E5D100225C20114601F0CCFF5C2002F0EE
:1045F80007F83C37DD46BD46BDE8F08F0050005255
:10460800004402580A0A0909540D0024114B026893
:104618009A4200D07047104A70B5D2F8D4300F4C87
:1046280023F4804304F11806C2F8D43054F8040F78
:1046380001F05CFE0546206801F060FE0146284650
:1046480003F05CF9B442F1D15C20BDE8704001F0A0
:10465800E5BF00BF0050005200440258540D00242A
:10466800014805F069B900BF080D0024084B1A1D60
:10467800981D03F1080110B49C1C9A6603F10A0204
:10468800C3E91834C3E91B015DF8044B5A67704746
:10469800F80C002438B5036871B9026A00F12805DE
:1046A80000F5AC74012A0CBF002140218BBB1D4BC7
:1046B8005722C0F858310DE0426A00F1C00500F5F4
:1046C800E874012A0CBF00214021EBB1164B5A2295
:1046D800C0F8D03100232046C4E901214FF48052AC
:1046E8004FF48061636262614FF48042C4E9033130
:1046F8004FF48073C4E906234FF40033236202F0B9
:10470800F3F858B1FFBEFEE7084B5822C0F8D03185
:10471800E0E7074B5922C0F85831DBE7C5E92044E8
:10472800A56338BD10000240700002402800024016
:10473800580002402DE9F043821D05468BB0031D49
:1047480005F10A010830CDE9052305F10C02AB6932
:10475800CDE907010992002B3DD0EB69B3FA83F844
:104768004FEA58180123022205AE0AAF4FF0060996
:104778000393CDE9012356F8044B2B792278934211
:1047880016D02B68F3B1012B02D1F2B10A2304939E
:10479800204601F0B3FD03462046009301F0A6FD34
:1047A800694602F06BFFBE42E5D10BB0BDE8F0836D
:1047B800697963789942E4D1B8F1000FF3D02B6896
:1047C800002BE0D1CDF81090E2E76378022B14BFFC
:1047D8000A230823DBE74FF00108C3E7534A0368BD
:1047E800934230B505468BB055D02032934252D013
:1047F8004F4A934204D02032934201D00BB030BDCF
:104808004C4C4D48D4F8E03043F00103C4F8E03094
:10481800D4F8E03003F001030593059BD4F8E030A9
:1048280043F00803C4F8E030D4F8E03003F008039C
:104838000693069BD4F8E03043F04003C4F8E03018
:10484800D4F8E03003F040030793079BD4F8F03026
:1048580043F40003C4F8F030D4F8F03003F4000354
:104868000893089BFFF766FFD4F8D830296843F00F
:1048780001032F4A3048C4F8D830891AD4F8D83000
:1048880018BF012103F001030993099B0BB0BDE890
:104898003040FFF7FFBE274C2848D4F8E03043F0FB
:1048A8000103C4F8E030D4F8E03003F001030093CA
:1048B800009BD4F8E03043F01003C4F8E030D4F89B
:1048C800E03003F010030193019BD4F8E03043F08B
:1048D8004003C4F8E030D4F8E03003F0400302931A
:1048E800029BD4F8F03043F48003C4F8F030D4F8D5
:1048F800F03003F480030393039BFFF71BFFD4F806
:10490800D830296843F00103084A0C48C4F8D83065
:10491800891AD4F8D83018BF012103F00103049391
:10492800049B0BB0BDE83040FFF7B4BE045801400B
:10493800045C014000440258CC0F0024700D002490
:10494800014802F049BB00BFC80E0024014802F02C
:1049580043BB00BF400F0024014802F03DBB00BF2D
:1049680024110024014802F037BB00BF9C11002429
:104978001A4A0368934210B40BD02032934208D0ED
:10498800174A934216D02032934213D05DF8044B55
:104998007047144B0022D3F85442C3F85822002C15
:1049A800F4D0D3F84802D3E9931223465DF8044BB8
:1049B800520818470B4B0022D3F8B044C3F8B4246C
:1049C800002CE3D0D3F8AC24D3F8A814D3F8A4046B
:1049D800520823465DF8044B184700BF04580140AD
:1049E800045C0140700D0024184A0368934210B417
:1049F8000BD02032934208D0154A934217D0203268
:104A0800934214D05DF8044B7047124BD3E99424B9
:104A18005208C3F85822002CF4D0D3E99201234657
:104A280001EB820100EB82005DF8044B1847094B4B
:104A3800D3F8AC24D3F8B0445208C3F8B424002CFB
:104A4800E0D0D3F8A814D3F8A404E8E70458014048
:104A5800045C0140700D00242DE9F04F0C684FF400
:104A68001776754F87B004FB06F6012C07EB060A8C
:104A7800C0F800A000F3A0800D468E464FF0000855
:104A8800D44669A3D3E9002369A1D1E90001CDE99E
:104A9800022306ABCAF8508203EB8403CDE9040174
:104AA80053F810BC53F8083CCAE992880193BEE851
:104AB8000F00ACE80F00BEE80F00ACE80F00019B48
:104AC8009EE80300CAF828B0CAF8C0308CE8030092
:104AD8002B69042B0CD8DFE803F0737D8791030062
:104AE8004FF41773554A03FB04739A64C3F8E02024
:104AF800AA692B6A002A43D0002B4FF4177308BF0A
:104B0800022203FB047318BF0322DA6201221A632C
:104B1800EA696B6A002A40D1191E4FF4177318BF4F
:104B2800012103FB0473C3E931126B69022B05D819
:104B3800434A12F80380434A52F823904FF41773FC
:104B480006F128004246494603FB04740023384412
:104B580063646363E365C4F8DC30C4F8CC30C4F83C
:104B6800F430C4E90F33C4E91533C4E93533C4E973
:104B78003B33022306F082FF002849D0FFBEFEE740
:104B8800191E4FF4177318BF012103FB0473C3E9FF
:104B98000B12EA696B6A002ABED0002B4FF4177318
:104BA80008BF022203FB047318BF0322C3F8C42002
:104BB8000122C3F8C820B8E7012007B0BDE8F08F8C
:104BC8004FF417734FF4FA5203FB04739A64C3F853
:104BD800E0208DE74FF417734FF47A5203FB047308
:104BE8009A64C3F8E02083E74FF417734FF4FA424E
:104BF80003FB04739A64C3F8E02079E74FF4177352
:104C08004BF6803203FB04739A64C3F8E0206FE725
:104C180006F1C000022342464946384406F02EFFFA
:104C28000028CAD0FFBEFEE704580140045C0140DA
:104C380024580140245C0140700D002400770100D5
:104C480070240108742401080068704770B504686E
:104C580082B015460E46C4F85032C4E99212069A3C
:104C6800C4F85422A269012A26D0626A012A9AB29B
:104C780011D0294604F1C000019206F0BBFF236A57
:104C8800019A012B10D0294604F1280006F0B2FF42
:104C9800002002B070BD04F1C000019207F03CF89A
:104CA800236A019A012BEED1314604F1280007F05E
:104CB80033F8002002B070BD226A012A9AB211D0DE
:104CC800294604F12800019206F094FF636A019ACC
:104CD800012B10D0294604F1C00006F08BFF0020FC
:104CE80002B070BD04F12800019207F015F8636A5C
:104CF800019A012BEED1314604F1C00007F00CF8FF
:104D0800002002B070BD00BF03681B69042B05D8E2
:104D1800044A02EB830393ED000A70479FED020AF1
:104D2800704700BF8024010800803B470368D3F820
:104D38005802704770B5002304464FF4806204217E
:104D48004FF440353448C4F83821C4F8D410C4F8B6
:104D58003431C4F84C113149C4F8B000C4F82811F2
:104D6800C4E92F32C4E93133C4E93335C4E93733F0
:104D7800C4E94F33C4E95135C4E95533A268032364
:104D8800C4F8D830C4F85031042A0AD8DFE802F051
:104D98001F262D34030055225623C4F8B420C4F826
:104DA8002C310022402304F1B005C4F8B82028466D
:104DB800C4F8303101F098FD08B1FFBEFEE704F5F4
:104DC8009476304601F090FDE8B1FFBEFEE725225B
:104DD8002623C4F8B420C4F82C31E2E7272228237C
:104DE800C4F8B420C4F82C31DBE73D223E23C4F8D4
:104DF800B420C4F82C31D4E753225423C4F8B42087
:104E0800C4F82C31CDE704F12803C4E92865C4F8B7
:104E1800E830C4F8603170BD4004024058040240D4
:104E28002DE9F04F814683B00E4617461D4600F126
:104E38002804204608F004F801288246F9D148469B
:104E4800FFF778FF8046002835D1EFF310830193F0
:104E580072B6DFF888B00C9B99F90820DFF880A0BB
:104E6800DFF88090CBF800300D9B89F80020CAF855
:104E780000300DB11846A847BAB23146204607F0AF
:104E880055FB30B9019B03B962B6404603B0BDE893
:104E9800F08F0023CBF80030CAF80030FF2389F8E0
:104EA80000300C9B8BB101210D9888469847019BD7
:104EB800002BEAD1E8E70C9B53B1D0460D98514638
:104EC8009847404603B0BDE8F08F4FF00108D9E796
:104ED800D046404603B0BDE8F08F00BF481C002410
:104EE800501C00244C1C00242DE9F04F814683B04F
:104EF8000E4617461D4600F12804204607F0A0FF7D
:104F080001288246F9D14846FFF714FF8046002859
:104F180035D1EFF31083019372B6DFF888B00C9B9C
:104F280099F90820DFF880A0DFF88090CBF80030EE
:104F38000D9B89F80020CAF800300DB11846A84723
:104F4800BAB23146204607F0B5FC30B9019B03B927
:104F580062B6404603B0BDE8F08F0023CBF80030BE
:104F6800CAF80030FF2389F800300C9B8BB101216F
:104F78000D9888469847019B002BEAD1E8E70C9BDF
:104F880053B1D0460D9851469847404603B0BDE806
:104F9800F08F4FF00108D9E7D046404603B0BDE88E
:104FA800F08F00BF481C0024501C00244C1C002417
:104FB8002DE9F04F814683B00F461646984600F11A
:104FC8002804204607F03CFF0128FAD182464846CB
:104FD800FFF7B0FE0546002838D1EFF310830193A0
:104FE80072B699F90830DFF88890DFF888B089F848
:104FF80000300D9BDFF880A0CBF800300E9BCAF87C
:1050080000300C9B0BB10E9898471FFA88F33A466C
:105018003146204607F042FB30B9019B03B962B61E
:10502800284603B0BDE8F08F0023CBF80030CAF85B
:105038000030FF2389F800300D9B8BB101210E98B9
:105048000D469847019B002BEAD1E8E70D9B4BB131
:1050580055460E9851469847284603B0BDE8F08F4C
:105068000125DAE75546284603B0BDE8F08F00BFB2
:105078004C1C0024481C0024501C00242DE9F0433B
:10508800002387B00222044605690493CDE9022370
:10509800D0E902128E00FAB1022D7AD02178B5FA41
:1050A80085F54FF00108276A0B294FEA551521D1DC
:1050B800A2780B2A02D0B8F1000F38D123790B2B34
:1050C80001D0002D6CD1A37917B10B2B40F099803A
:1050D800002007B0BDE8F08335F002032178276A85
:1050E8000CBF4FF001084FF00008023D18BF012522
:1050F8000B29DDD07D4B94F801C053F82620107899
:105108000B2802D0884200F0AD80D378D01C994299
:1051180002D10B2B40F0BD809379901D8B4202D1B8
:105128000B2B40F0BC80012007B0BDE8F083711C58
:105138006E4BE07853F8213019780B2902D08A4257
:1051480000F0B580D97803F1030C0B2902D08A420C
:1051580000F0BB80997903F1060C0B29E3D08A4251
:10516800E1D1DB798342DED1634604F102099B7801
:105178004846059301F0BAF88046484601F0BEF863
:1051880001A90190404602F079FA23790B2B98D1B6
:1051980099E70178076A0B2940F0868001258DE799
:1051A800B11C524A607952F8212011780B2902D09B
:1051B8008B4200F08180D178D51C0B2902D08B421C
:1051C80000F08D809179951D8B42ACD10B29AAD026
:1051D800D3798342A7D12A46251D9378284605937B
:1051E80001F084F8034628461D4601F087F801A916
:1051F8000190284602F042FAA379002F7FF465AFA8
:1052080066E7F11C394AE07952F8212011780B2918
:1052180001D08B425FD0D178D51C0B2901D08B42AD
:105228004FD09179951D8B427FF47DAF0B293FF4C8
:105238007AAFD37983427FF476AF2A46A51D937857
:105248002846059301F052F80446284601F056F81E
:10525800034601A92046019302F010FA002007B086
:10526800BDE8F083537863457FF44FAF93782046C9
:10527800059301F03BF88146204601F03FF801A96B
:105288000190484602F0FAF9A2780B2A7FF413AF8E
:1052980014E7137963457FF43FAF0246E6E7D37915
:1052A80063457FF440AFF8E79846012522E759782F
:1052B80081427FF447AF58E7517881427FF47BAF52
:1052C8008AE711798142ACD1B7E7197981427FF435
:1052D80041AF634649E7517881429CD1AEE71179E5
:1052E80081427FF46FAF2A4676E700BFBC240108ED
:1052F800654A0368934200F0B980A2F57842934268
:1053080000F0B68002F58062934200F0B38002F5A7
:105318007842934200F0B08002F5E052934200F0E8
:10532800AD805A4A934240F0AB8005234FF4D071C8
:10533800574A01FB03F310B5D418D05C86B000F0CF
:10534800E5FFA07800F0E2FF207900F0DFFFA07908
:1053580000F0DCFFA368052B11D8DFE803F0192F54
:10536800455B71034B4BD3F8F42042F02002C3F89D
:10537800F420D3F8F43003F020030593059B20466E
:10538800FFF77CFE012801D006B010BDFFBEFEE786
:10539800404B00222320D3F8F01041F48051C3F889
:1053A800F0101146D3F8F03003F480530093009BBB
:1053B80001F0E8F8232001F023F9E0E7354B00225B
:1053C8002420D3F8E81041F48041C3F8E8101146CE
:1053D800D3F8E83003F480430193019B01F0D2F83D
:1053E800242001F00DF9CAE72A4B00223320D3F814
:1053F800E81041F40041C3F8E8101146D3F8E8304A
:1054080003F400430293029B01F0BCF8332001F03F
:10541800F7F8B4E71F4B00225420D3F8F01041F4FA
:105428000051C3F8F0101146D3F8F03003F40053DC
:105438000393039B01F0A6F8542001F0E1F89EE7DE
:10544800144B00225520D3F8F01041F48011C3F812
:10545800F0101146D3F8F03003F480130493049B42
:1054680001F090F8552001F0CBF888E700235DE7BC
:1054780001235BE7022359E7032357E7042355E792
:1054880000231B78FFDE00BF0030014000140058E5
:1054980028120024004402582DE9F043002289B064
:1054A8001B4B01210DF1040C9E461A4B0791E14656
:1054B800E04667460EF11C060EF138050EF154045D
:1054C800CDE90122CDE90322CDE90522FF221A7098
:1054D800BCE80F00AEE80F009CE807008EE8070064
:1054E800B9E80F000FC69CE8070086E80700B8E88F
:1054F8000F000FC59CE8070085E807000FCF0FC411
:105508009CE8070084E8070009B0BDE8F08300BF05
:10551800200100244C1C0024014807F065BB00BF93
:1055280050120024014807F05FBB00BFF0130024AD
:10553800014807F059BB00BF90150024014807F047
:1055480053BB00BF30170024014807F04DBB00BF14
:10555800D018002410B5EFF3108472B6084B1A78EF
:10556800120602D504B962B610BD1B784FF4D0728A
:1055780004485BB202FB0300B03001F02DFDF1E7F7
:105588004C1C00242812002410B5EFF3108472B6C6
:10559800094B1A78120602D504B962B610BD1B78F9
:1055A8004FF4D07205485BB202FB030000F594701B
:1055B80001F012FDF0E700BF4C1C00242812002463
:1055C8002DE9F04184B0EFF3108772B6284AFF2125
:1055D800284C1368217023B100211160264A1068F5
:1055E800984723781B061CD5DFF894800025234EA6
:1055F8004446216879B162686AB1A369012B22D057
:10560800A3B963693046019323690093E36822894B
:10561800FFF76AFC18B301351C3406F5D076042D63
:10562800E7D107B962B604B0BDE8F081D4E9043027
:10563800CDE90130E068238900903046FFF7B8FCD7
:105648000028E8D10BE0D4E904301146CDE9003058
:105658003046E3682289FFF7E3FB0028DBD1C5EB7E
:10566800C50508EB850348F825005860D9E700BF51
:10567800481C00244C1C0024501C00242812002420
:10568800200100242DE9F04184B0EFF3108772B6B1
:10569800284AFF21284C1368217023B1002111608A
:1056A800264A1068984723781B061CD5DFF8948093
:1056B8000025234E4446216879B162686AB1A3691E
:1056C800012B22D0A3B96369304601932369009363
:1056D800E3682289FFF708FC18B301351C3406F586
:1056E800D076042DE7D107B962B604B0BDE8F081E1
:1056F800D4E90430CDE90130E068238900903046D0
:10570800FFF756FC0028E8D10BE0D4E90430114635
:10571800CDE900303046E3682289FFF781FB002895
:10572800DBD1C5EBC50508EB850348F825005860B3
:10573800D9E700BF481C00244C1C0024501C00243E
:1057480028120024200100242DE9F04184B0EFF351
:10575800108772B6284AFF21284C1368217023B19C
:1057680000211160264A1068984723781B061CD52B
:10577800DFF894800025234E4446216879B1626899
:105788006AB1A369012B22D0A3B96369304601939A
:1057980023690093E3682289FFF7A6FB18B3013554
:1057A8001C3406F5D076042DE7D107B962B604B0EB
:1057B800BDE8F081D4E90430CDE90130E0682389FF
:1057C80000903046FFF7F4FB0028E8D10BE0D4E95D
:1057D80004301146CDE900303046E3682289FFF7EE
:1057E8001FFB0028DBD1C5EBC50508EB850348F88E
:1057F80025005860D9E700BF481C00244C1C002431
:10580800501C002428120024200100242DE9F04116
:1058180084B0EFF3108772B606F050FC284A294C82
:10582800FF21136821702BB1002111600121264A44
:105838001068984723781B061CD5DFF8948000254C
:10584800224E4446216879B162686AB1A369012B86
:1058580022D0A3B963693046019323690093E368B2
:105868002289FFF741FB18B301351C3406F5D076C1
:10587800042DE7D107B962B604B0BDE8F081D4E9D8
:105888000430CDE90130E068238900903046FFF705
:105898008FFB0028E8D10BE0D4E904301146CDE9AC
:1058A80000303046E3682289FFF7BAFA0028DBD1D6
:1058B800C5EBC50508EB850348F825005860D9E70E
:1058C800481C00244C1C0024501C002428120024CE
:1058D800200100242DE9F0418F684FF4D0743D4E2B
:1058E8008C4607FB04F4052F06EB04050560AE465D
:1058F800BCE80F00AEE80F00BCE80F00AEE80F00F0
:105908009CE803008EE8030004D8EB68002B5ED007
:10591800012B02D00120BDE8F08100214FF4D073A3
:1059280003FB07631A69032AF4D8D3F814C0ACF14F
:1059380004001C28EED89B691BB1012BEAD14FF05B
:1059480000734FF4D07000FB0760C06918B10128DC
:10595800E0D14FF080704FF4D07505FB0765D5F89E
:1059680020E0BEF1020FD5D8D5F82480B8F1070F92
:10597800D0D85204E962C5E90E300CF1FF332A632E
:1059880004F128006B634FEA087330446B6400230A
:10599800C5E91233C5E91433C5E91833C5E91A3323
:1059A800C5E91C33C5E91E33C5F880300A4B53F8E6
:1059B8002E200A4B2A6453F82730AB624FF08043FD
:1059C800EB6506F07BFB0028A5D0FFBEFEE74FF491
:1059D8008001A3E728120024AC24010894240108BC
:1059E800006892B208B5283006F016FC003818BFD7
:1059F800012008BD30B4544B002108220220534C2A
:105A0800D9615862C3F8BC11C3F8C401C3F85C1368
:105A1800C3F86403C3F8F424C3F8F814C3F8FC14F7
:105A2800C3F80405C3F89426C3F89816C3F89C165F
:105A3800C3F8A406C3F83428C3F83818C3F83C18C8
:105A4800C3F84408424D4348C3E90521C3E96D2121
:105A5800C3E9D5212288A3783F49EA80CA800B721E
:105A68003E492B72CA800B722168A0F8032043714B
:105A7800C28003723A4C3B48E2802372A0F80320AC
:105A8800394C4371C28003723848E2802372A0F80F
:105A98000320374C4371C2800372080C2180A07028
:105AA800A4F803206371E2802372324C324D2180C6
:105AB800A070A4F803206371E28023722F4CEA805F
:105AC80021802B72A070A4F803206371E2802372F6
