:020000040800F2
:10000000000002205909000855090008A948000805
:1000100055090008550900085509000800000000AE
:10002000000000000000000000000000550900086A
:100030005509000800000000550900082D48000877
:100040005509000855090008550900085509000818
:100050005509000855090008550900085509000808
:1000600055090008550900085509000871370008AE
:100070007D370008550900088937000895370008C2
:10008000A5DB0008A12C0008550900085509000847
:1000900055090008550900085509000855090008C8
:1000A00055090008550900085509000855090008B8
:1000B00079CF000885CF000891CF0008D52C000823
:1000C00055090008E12C0008550900089D41000869
:1000D000A9410008D9D9000809DA00083DDA00086A
:1000E00055090008550900080000000055090008DE
:1000F0005509000855090008550900085509000868
:1001000055090008550900089DCF0008B5410008B1
:1001100071DA0008A5DA0008550900085509000839
:100120005509000855090008D94100080D4200088A
:10013000D9DB0008550900085509000855090008D1
:1001400000000000000000000000000000000000AF
:10015000550900085509000855090008D9DA0008B2
:10016000ED2C0008550900083D48000861480008CA
:100170005509000885480008550900085509000878
:1001800055090008550900080DDB00083DDB000893
:10019000C1410008CD410008550900085509000873
:1001A00055090008550900085509000855090008B7
:1001B0009134000855090008550900085509000840
:1001C0005509000855090008550900085509000897
:1001D0005509000855090008550900085509000887
:1001E0005509000855090008550900085509000877
:1001F0005509000855090008550900085509000867
:100200005509000855090008550900085509000856
:100210005509000855090008550900085509000846
:10022000550900085509000855090008000000009C
:10023000550900085509000800000000550900088C
:100240005509000855090008550900085509000816
:100250005509000855090008550900085509000806
:1002600055090008550900085509000855090008F6
:10027000550900085509000871DB0008000000005E
:10028000550900085509000855090008000000003C
:08029000000000005509000800
:1002980010B5054C237833B9044B13B10448AFF3B8
:1002A80000800123237010BDE80300240000000033
:1002B800380F010808B5034B1BB103490348AFF3D6
:1002C800008008BD00000000EC030024380F01087E
:1002D80081F0004102E000BF83F0004330B54FEAEF
:1002E80041044FEA430594EA050F08BF90EA020F5C
:1002F8001FBF54EA000C55EA020C7FEA645C7FEAEF
:10030800655C00F0E2804FEA5454D4EB5555B8BF11
:100318006D420CDD2C4480EA020281EA030382EA82
:10032800000083EA010180EA020281EA0303362D14
:1003380088BF30BD11F0004F4FEA01314FF4801CE7
:100348004CEA113102D0404261EB410113F0004FF9
:100358004FEA03334CEA133302D0524263EB4303B0
:1003680094EA050F00F0A780A4F10104D5F1200E4E
:100378000DDB02FA0EFC22FA05F2801841F10001A9
:1003880003FA0EF2801843FA05F359410EE0A5F17D
:1003980020050EF1200E012A03FA0EFC28BF4CF0AE
:1003A800020C43FA05F3C01851EBE37101F0004564
:1003B80007D54FF0000EDCF1000C7EEB00006EEB71
:1003C8000101B1F5801F1BD3B1F5001F0CD34908FB
:1003D8005FEA30004FEA3C0C04F101044FEA445252
:1003E80012F5800F80F09A80BCF1004F08BF5FEAD9
:1003F800500C50F1000041EB045141EA050130BDB9
:100408005FEA4C0C404141EB0101013C28BFB1F5CA
:10041800801FE9D291F0000F04BF01460020B1FA15
:1004280081F308BF2033A3F10B03B3F120020CDAE8
:100438000C3208DD02F1140CC2F10C0201FA0CF0C6
:1004480021FA02F10CE002F11402D8BFC2F1200C2B
:1004580001FA02F120FA0CFCDCBF41EA0C019040E1
:10046800E41AA2BF01EB0451294330BD6FEA04042A
:100478001F3C1CDA0C340EDC04F11404C4F1200215
:1004880020FA04F001FA02F340EA030021FA04F327
:1004980045EA030130BDC4F10C04C4F1200220FA7E
:1004A80002F001FA04F340EA0300294630BD21FABC
:1004B80004F0294630BD94F0000F83F4801306BF82
:1004C80081F480110134013D4EE77FEA645C18BF76
:1004D8007FEA655C29D094EA050F08BF90EA020F0D
:1004E80005D054EA000C04BF1946104630BD91EA05
:1004F800030F1EBF0021002030BD5FEA545C05D108
:100508004000494128BF41F0004130BD14F5800446
:100518003CBF01F5801130BD01F0004545F0FE41BA
:1005280041F470014FF0000030BD7FEA645C1ABFEF
:10053800194610467FEA655C1CBF0B46024650EA26
:10054800013406BF52EA033591EA030F41F4002152
:1005580030BD00BF90F0000F04BF0021704730B5D8
:100568004FF4806404F132044FF000054FF00001AD
:1005780050E700BF90F0000F04BF0021704730B56E
:100588004FF4806404F1320410F0004548BF404243
:100598004FF000013EE700BF42004FEAE2014FEA98
:1005A80031014FEA02701FBF12F07F4393F07F4F73
:1005B80081F06051704732F07F4208BF704793F076
:1005C8007F4F04BF41F40021704730B54FF4607489
:1005D80001F0004521F000411CE700BF50EA01028C
:1005E80008BF704730B54FF000050AE050EA010235
:1005F80008BF704730B511F0004502D5404261EBA5
:1006080041014FF4806404F132045FEA915C3FF4E5
:10061800D8AE4FF003025FEADC0C18BF03325FEA82
:10062800DC0C18BF033202EBDC02C2F1200300FA33
:1006380003FC20FA02F001FA03FE40EA0E0021FA58
:1006480002F11444BDE600BF53B94AB9002908BFF6
:1006580000281CBF4FF0FF314FF0FF3000F074B995
:10066800ADF1080C6DE904CE00F006F8DDF804E001
:10067800DDE9022304B070472DE9F047089D0446E0
:100688008E46002B4DD18A42944669D9B2FA82F23D
:1006980052B101FA02F3C2F1200120FA01F10CFA79
:1006A80002FC41EA030E94404FEA1C48210CBEFBB1
:1006B800F8F61FFA8CF708FB16E341EA034306FB3A
:1006C80007F199420AD91CEB030306F1FF3080F0C9
:1006D8001F81994240F21C81023E63445B1AA4B216
:1006E800B3FBF8F008FB103344EA034400FB07F7B8
:1006F800A7420AD91CEB040400F1FF3380F00A81F9
:10070800A74240F207816444023840EA0640E41BED
:1007180000261DB1D4400023C5E900433146BDE899
:10072800F0878B4209D9002D00F0EF800026C5E93B
:10073800000130463146BDE8F087B3FA83F6002E53
:100748004AD18B4202D3824200F2F980841A61EBCB
:10075800030301209E46002DE0D0C5E9004EDDE7E9
:1007680002B9FFDEB2FA82F2002A40F09280A1EBD1
:100778000C014FEA1C471FFA8CFE0126200CB1FB26
:10078800F7F307FB131140EA01410EFB03F088421F
:1007980008D91CEB010103F1FF3802D2884200F2AC
:1007A800CB804346091AA4B2B1FBF7F007FB10113E
:1007B80044EA01440EFB00FEA64508D91CEB0404DC
:1007C80000F1FF3102D2A64500F2BB800846A4EB37
:1007D8000E0440EA03409CE7C6F12007B34022FA22
:1007E80007FC4CEA030C20FA07F401FA06F31C4351
:1007F800F9404FEA1C4900FA06F3B1FBF9F8200C5E
:100808001FFA8CFE09FB181140EA014108FB0EF0A3
:10081800884202FA06F20BD91CEB010108F1FF3AF3
:1008280080F08880884240F28580A8F102086144FF
:10083800091AA4B2B1FBF9F009FB101144EA01410D
:1008480000FB0EFE8E4508D91CEB010100F1FF34B8
:100858006CD28E456AD90238614440EA0840A0FB50
:100868000294A1EB0E01A142C846A64656D353D026
:100878005DB1B3EB080261EB0E0101FA07F722FA4A
:1008880006F3F1401F43C5E9007100263146BDE873
:10089800F087C2F12003D8400CFA02FC21FA03F3D6
:1008A800914001434FEA1C471FFA8CFEB3FBF7F057
:1008B80007FB10360B0C43EA064300FB0EF69E427C
:1008C80004FA02F408D91CEB030300F1FF382FD215
:1008D8009E422DD9023863449B1B89B2B3FBF7F6BD
:1008E80007FB163341EA034106FB0EF38B4208D996
:1008F8001CEB010106F1FF3816D28B4214D9023ED7
:100908006144C91A46EA004638E72E46284605E7F4
:100918000646E3E61846F8E64B45A9D2B9EB0208C5
:1009280064EB0C0E0138A3E74646EAE7204694E755
:100938004046D1E7D0467BE7023B614432E7304688
:1009480009E76444023842E7704700BFFEE700BF8A
:100958000B480C4A904203D0121A0B490FF0DEFCE8
:100968000A480B4A904203D0121A00210FF0E4FC07
:1009780004F0BEF90FF0A6FC01F070FAFEE700BF24
:1009880000000024E8030024680F0108E80300249D
:10099800143C0024704700BF704700BF40207047D8
:1009A8008020704749424FF480621430C9B20FF07A
:1009B800C3BC00BF10B5044640F214410FF065FAFD
:1009C800204610BD2DE9F041B02482B000F10806A0
:1009D80000F1100500F11408002728468DF807409B
:1009E8000134394602F004F8642301220DF10701AD
:1009F8003046E4B203F032FE394628468DF80770D7
:100A080001F0F6FF012264230DF10701304603F0DF
:100A180025FE1023394628468DF8073001F0E8FFF7
:100A2800642301220DF10701304603F017FE01216E
:100A3800284601F0DDFF8022414664233046904479
:100A480003F00CFEB82CC7D102B0BDE8F08100BF9E
:100A58002DE9F04F89B008AC9DF84870019104E980
:100A68000C000B78002B00F0AB801A469DF818801C
:100A78009DF819300646454690460393079B059313
:100A8800A8F12004E3B25E2B00F29E8033685E4A30
:100A9800DB68934240F09B808020B3882B448342DC
:100AA80000F392803368594A9B68934240F09280E1
:100AB8004020F188039A02918B18834200F38480C6
:100AC800002A00F0918002FB04F46FF00049059BB6
:100AD800A1441444B6F804B003EB4909023BCDF82D
:100AE800108003EB44030C469A4639F802CFA5B3AD
:100AF80004F007034FF0010EE20859460EFA03FE10
:100B08000BF114034FFA8EFE03EBC21200236FEAB7
:100B18000E0832440DE07F2906D83F2C04D81078FF
:100B280097B14EEA00001070013301320131AB4237
:100B380013D00CFA03F00004EDD47F29F4D83F2C2D
:100B4800F2D81078002FECD0013308EA0000013207
:100B58000131AB4202F8010CEBD1D14504F101049B
:100B6800C3D1DDF8108032680BEB05042649D36841
:100B7800A4B28B4234D18020844204D3D368224962
:100B88008B423AD17F249368204AB480934224D17F
:100B98004020029B834206D333681C4A9B689342D9
:100BA80025D13F230293029BF380019B187840458F
:100BB80007D113F8018F0193B8F1000F7FF460AFEC
:100BC800002009B0BDE8F08F4FF00008EDE730468F
:100BD800984762E7304698476BE730469847D8E72A
:100BE800304698473268C7E7B6F804B0BBE73046E6
:100BF8009847013883B20293D5E7304698470138C1
:100C0800326884B2BFE700BFA9090008A509000837
:100C18002DE9F04F85B0A1F1200504AC9DF838709E
:100C2800009104E90C00EBB25E2B00F2958003689A
:100C380080465D4ADB689DF8084093429DF809604C
:100C480040F094808020B8F804302344834200F3B5
:100C58008380D8F80030554A9B68934240F08880DA
:100C68004020B8F8062093190192834274DC002EC4
:100C780000F0898006FB05F56FF00040039B96465F
:100C880028442E44B8F804A003EB4000023B03EBD1
:100C9800460B30F8026FBCB30EF007034FF0010C9F
:100CA8004FEADE0251460CFA03FC0AF114034FFA2C
:100CB8008CFC03EBC21200236FEA0C0942440EE0DD
:100CC8007F2907D8BEF13F0F04D815789FB14CEAA9
:100CD800050515700133013201319C4214D006FA22
:100CE80003F52D04ECD47F29F4D8BEF13F0FF1D8D9
:100CF8001578002FEBD0013309EA050501320131DF
:100D08009C4202F8015CEAD158450EF1010EC0D1AF
:100D1800D8F8003054442449DA68A4B28A422DD164
:100D2800802084421CD29B68204AA8F80440934241
:100D380021D14020019B834207D3D8F800301B4AB9
:100D48009B68934229D13F230193DDE90003A8F86A
:100D5800063005B0BDE8F08F002005B0BDE8F08F83
:100D6800DA6811498A4211D17F24DCE798476AE79B
:100D78004046984775E740469847DBE74046904726
:100D8800D8F80030CDE7B8F804A0C1E7404690474E
:100D98000138D8F8003084B2C5E740469847013892
:100DA80083B20193D1E700BFA9090008A50900088B
:100DB8002DE9F04F89B01D46884606901046129CD2
:100DC80010F8013B13999DF85060009233B100224E
:100DD80010F8013B0132002BFAD193B22A786878D7
:100DE80012FB03F302B21BB223EAE373082900F2F1
:100DF800A681DFE811F0010113011F013301410150
:100E08004F0166016F010900A18827880F44B4F9D2
:100E18000610FF1A0029BFB2C0F2FE806488069847
:100E280004EB6104C280A4EB52028380078094B271
:100E38004480A64AD8F8003011460192DA688A42FE
:100E480040F08B818020B84205D8DA6801998A423F
:100E580040F098817F279E4A9B68A8F804709342C7
:100E6800039240F087814020A04207D8D8F800308C
:100E7800039A9B68934240F080813F24009BA8F826
:100E8800064093F800B06B782C7804936B6807934E
:100E9800BBF1000F00F0AC80ABF12005EBB25E2B8C
:100EA80000F22C81D8F80030019ADB68934240F0B8
:100EB80028818020B8F8043023449842C0F21E816B
:100EC800D8F80030039A9B68934240F01D81402077
:100ED800B8F80610049A02918B189842C0F20E8155
:100EE800002A00F01C8102FB05F56FF0004E079BFD
:100EF800AE441544CDF814B003EB4E0E023BB8F8DF
:100F080004A003EB45030D469B463EF8027FA4B3BD
:100F180005F007034FF0010CEA0851460CFA03FCF0
:100F28000AF114034FFA8CFC03EBC21200236FEA98
:100F38000C0942440DE07F2906D83F2D04D81078CB
:100F480096B14CEA000010700133013201319C4225
:100F580013D007FA03F00004EDD47F29F4D83F2D0D
:100F6800F2D81078002EECD0013309EA00000132E3
:100F780001319C4202F8010CEBD1F34505F1010562
:100F8800C3D1DDF814B0D8F800200AEB04050199A4
:100F9800D368ADB28B4240F0BD808020854205D336
:100FA800D36801998B4240F0C3807F259368039AE8
:100FB800A8F80450934240F0AA804020029B834244
:100FC80008D3D8F80030039A9B68934240F0AA806F
:100FD8003F230293029BA8F80630009A13785B45DA
:100FE80006D112F801BF0092BBF1000F7FF454AF95
:100FF800069809B0BDE8F08FB4F9041027880029D5
:10100800B8BF013107EB6107B4F90610A7EB630716
:101018000029BFB2BFF602AF0131FFE6B4F9007094
:101028000699B4F902400F80BFB24C80A4B28B80FD
:10103800CA80FEE6B4F9041027880029B4F90240F2
:10104800B8BF013107EB610706998B80A7EB6303F3
:101058004C80A4B29FB2CA800F80EAE6A188278894
:10106800B4F902400F4406998B80FB1A4C80A4B255
:101078009FB2CA800F80DCE6E78861883944B4F9FA
:101088000070081A069984B20F808B80BFB2CA809C
:101098004C80CEE6B4F9041027880029B8BF013186
:1010A80007EB6107A7EB6307B4F802C0BFB2E48897
:1010B800069964448B80201ACA800F8084B24C80C1
:1010C800B7E62788A1880F44FF1AEDE7A9090008A9
:1010D800A5090008B4F90610B4F90070002964885D
:1010E8000698B8BF0131C28004EB61040780838091
:1010F800BFB2A4EB520294B244809AE64FF0000BC0
:101108006BE740469847D5E640469847E0E64046B4
:10111800984753E740469847D8F800203EE7B8F884
:1011280004A030E740469847013883B2029351E75C
:10113800404698470138D8F8002085B236E7D8F8F5
:1011480000300024069A1349148054809480D48077
:10115800DA6801918A4205D0274640469047D8F878
:10116800003070E69B680C4AA8F80440934203924A
:101178003FF484AE4046984776E6404698470138A3
:1011880084B27BE6404690470138D8F8003087B2F1
:1011980061E600BFA9090008A50900087F291ED833
:1011A8003F2A1CD86BB1D3084FF0010C02F007029C
:1011B80001EBC3130CFA02F2C1180B7D1A430A752E
:1011C8007047D3084FF0010C02F0070201EBC3137C
:1011D8000CFA02FCC1180A7D22EA0C020A75704753
:1011E8002DE9F04F83B05C1A0C9E002C9DF83490CA
:1011F800A6EB0208B8BF6442B8F1000FB8BFC8F147
:1012080000088B428CBF4FF0010A4FF0FF3A96421C
:10121800A4EB080C51D84FF0FF357F2B019512D85D
:101228003F2E10D8F50806F0070E012703EBC51569
:101238000544B9F1000F47D007FA0EF795F814E006
:1012480047EA0E072F75964201D18B4229D0C8F183
:1012580000077F2914D83F2A12D8D50802F0070BB7
:101268004FF0010E01EBC5150544B9F1000F1BD075
:101278000EFA0BFE95F814B04EEA0B0E85F814E042
:10128800B7EB4C0F4FEA4C0502DAACEB080C5144B3
:10129800AC4202DD019DA4442A449942D9D1964228
:1012A800D7D103B0BDE8F08F0EFA0BFB95F814E028
:1012B8002EEA0B0E85F814E0E2E701257F2B019555
:1012C800C5D83F2EAED9C2E707FA0EFE2F7D96424B
:1012D80027EA0E072F75B8D0B9E700BF0000000055
:1012E8002DE9F04F2DED068B83B01F4680460D4645
:1012F8009DF8503016460193139B002BC0F22182B3
:10130800129A134406EE103ADDED127AB8EEC66B67
:101318009FEDCD4BB8EEE77B9FEDCD5B27EE047BD1
:1013280026EE046B87EE050B86EE05ABF7EEC08B59
:10133800B0EE680A0EF0B0FD07EE907AB7EECAABD1
:10134800F8EE679AB0EE408AB0EE680A0EF0A0FE9A
:1013580060EE698AB0EE4A0A0EF09EFDB0EE409A41
:10136800B0EE4A0A0EF094FE20EE690A29EE888A49
:1013780029EE899A70EE687AF0EE006A39EE487ABA
:1013880067EEA77AE7EE077AF4EEE67AF1EE10FA5E
:1013980006D5139BB42B40F396804FF0010901E06A
:1013A8004FF00009012478424FF0000C0095E31B30
:1013B800214627462246A340B9F1000F6AD142428E
:1013C80006EE90CACCF1000107EE102AB8EEE66AE4
:1013D80007EE901A06EE900AB8EEC77A139A66EEF0
:1013E800084AF8EEE77AB42A27EE284AF8EEE66AC1
:1013F80067EE885A74EEC43A26EEA85A26EE096AB1
:1014080066EE806A67EE897A27EE007AF5EEC03AD2
:1014180040F3F280F1EE10FA00F17F8176EE473A60
:1014280074EEC54AF5EEC03AF1EE10FAF5EEC04A90
:10143800CCBF01220022F1EE10FA00F1778136EEDE
:10144800666A35EEC55AB5EEC06AF1EE10FAB5EE29
:10145800C05ACCBF01210021F1EE10FA00F16F81D2
:1014680077EEE66AF5EEC06AF1EE10FACCBF012716
:10147800002775EEC45AF5EEC05AF1EE10FA00F1E5
:10148800478177EEC77AF5EEC07AF1EE10FACCBF55
:1014980001240024002A40F08A80002964D1BFB9C1
:1014A800C4BB9C4558DB0CF1010C03EB4C0E1CEB48
:1014B800000F0EF1010E00F0C08098424FDB73461A
:1014C80000287FF779AF03B0BDEC068BBDE8F08F3D
:1014D800009DA6EB0C0E00EB050ABAF17F0FDFD8D2
:1014E800BEF13F0FDCD84FEADE0B019D0AEBCB1AA9
:1014F800002D00F0B1800EF0070BC2444FF0010E32
:101508000EFA0BFE9AF814B04EEA0B0E8AF814E0A5
:10151800002CC6D0009DA6EB0C0EA5EB000ABAF174
:101528007F0FBED8BEF13F0FBBD84FEADE0B019D3F
:101538000AEBCB1A002D00F0AE800EF0070BC24468
:101548004FF0010E9C450EFA0BFE9AF814B04EEAC5
:101558000B0E8AF814E0A6DA98429E46AFDA0130FC
:101568000EEB40030133ABE7009D0CEB060E00EBDE
:10157800050ABAF17F0F92D8BEF13F0F8FD84FEA14
:10158800DE0B019D0AEBCB1A002D73D00EF0070B72
:10159800C2444FF0010E0EFA0BFE9AF814B04EEA50
:1015A8000B0E8AF814E0002F3FF47AAF90E7009D05
:1015B8000CEB060EA5EB000ABAF17F0F3FF66DAFF4
:1015C800BEF13F0F3FF669AF4FEADE0B019D0AEB14
:1015D800CB1A002D6DD00EF0070BC2444FF0010E50
:1015E8000EFA0BFE9AF814B04EEA0B0E8AF814E0C5
:1015F80000293FF454AFB7E7F1EE10FA7ED44A461B
:1016080074EEC54AF5EEC04AF1EE10FA6CD400212A
:1016180035EEC55AB5EEC05AF1EE10FA5AD4002785
:1016280075EEC45AF5EEC05AF1EE10FA3FF529AF3F
:101638000024002A3FF431AFB9E798428FDB00233A
:101648003BE700BFAFF300807A008BFCFA2109402A
:101658000000000000806640C2444FF0010B0EF00D
:10166800070E0BFA0EFE9AF814B02BEA0E0E8AF843
:1016780014E015E7C2444FF0010B0EF0070E0BFA09
:101688000EFE9AF814B02BEA0E0E8AF814E0002F1A
:101698003FF406AF1CE7C2444FF0010B0EF0070EF3
:1016A8000BFA0EFE9AF814B02BEA0E0E8AF814E024
:1016B800F7E6C2444FF0010B0EF0070E0BFA0EFED0
:1016C8009AF814B02BEA0E0E8AF814E000293FF4B9
:1016D800E6AE49E777EEE66AF5EEC06AF1EE10FA93
:1016E800CCBF012700279BE736EE666AB5EEC06AD5
:1016F800F1EE10FACCBF0121002189E776EE473AD6
:10170800F5EEC03AF1EE10FACCBF0122002277E7DD
:101718000124002A3FF4C1AE49E774EEC54A01220C
:10172800F5EEC04AF1EE10FA7FF589AE35EEC55AEE
:101738000121B5EEC05AF1EE10FA7FF591AE0127FE
:1017480097E6DDE91223134406EE102A1293139B41
:101758005B421393D8E500BF2DE9F04F87B09DF8A1
:101768004850109C2E4601959DF844509EB39942CE
:101778002ED89946A24228D87F29164694BF00231E
:10178800012308E09CF814804EEA080E8CF814E057
:101798000136B44219D33F2EFAD8002BF8D14FEABC
:1017A800D60C06F0070E4FF0010801EBCC1C08FA26
:1017B8000EFE8444002DE5D19CF814B001362BEAC6
:1017C8000E0AB4428CF814A0E5D201318945D1D271
:1017D80007B0BDE8F08FA3EB0108B8F1000FB8BF60
:1017E800C8F100089942C0F04E817F2B4FF0FF3AB4
:1017F80094BF002601263F2A009694BF00270127A0
:101808000297A6B99FB9D60802F0070C012703EB87
:10181800C6160644002D00F0948107FA0CF796F8D6
:1018280014C047EA0C0737750026029600969942BD
:1018380000F09781464694468E46BEF17F0F16D833
:10184800BCF13F0F13D84FEADC070CF0070B4FF041
:1018580001090EEBC7170744002D00F0398109FA7A
:101868000BF997F814B049EA0B0987F81490770038
:1018780018BFD644B84502DD46440CF1FF3C734519
:10188800DBD16245D9D100260496A4EB0209009F5A
:10189800B9F1000FB8BFC9F100093F2C94BF002669
:1018A8000126A242C9F100080396C0F02381002F47
:1018B80040F05081002E40F04D814FF0FF360096E9
:1018C800E60803EBC6160644002D00F01E814FF013
:1018D800010C04F007070CFA07F796F814C047EA5A
:1018E8000C07377500260396A24200F03D81C446D6
:1018F80016461F4605927F2F15D83F2E13D84FEA5C
:10190800D60E06F0070B4FF0010A07EBCE1E8644F1
:10191800002D00F0E6800AFA0BFA9EF814B04AEAA5
:101928000B0A8EF814A0B8EB4C0F4FEA4C0E02DAF3
:10193800ACEB090C013FBEF1000F01D0009A164430
:10194800BB42D8D1B442D6D1059AA1EB030EBEF161
:10195800000FB8BFCEF1000E7F2994BF4FF0000AE8
:101968004FF0010A99428CBF4FF001094FF0FF393F
:10197800BAF1000F13D1039E8EB9E60801EBC61623
:101988000644002D00F0D3804FF0010C04F0070747
:101998000CFA07F796F814C047EA0C073775049E47
:1019A80026BB774626467F2B14D83F2E12D84FEAFF
:1019B800D60C06F0070B4FF0010803EBCC1C84444F
:1019C800002D73D008FA0BF89CF814B048EA0B08FD
:1019D8008CF814805FEA470C18BF4B44E64501DDDC
:1019E8007744013E9942DED1B442DCD1A2EB040E29
:1019F800BEF1000FB8BFCEF1000EA2428CBF4FF06F
:101A080001084FF0FF38CEF1000CBAF1000F0ED1EB
:101A1800029B63B9D30802F00707012601EBC31341
:101A28000344002D7CD0BE401F7D3E431E75019BA4
:101A3800002B7FF4CDAE66460B467F2B12D83F2C89
:101A480010D8E70804F0070A4FF0010903EBC7179D
:101A58000744A5B309FA0AF997F814A049EA0A094C
:101A680087F81490BCEB460F4FEA460702DAA6EB5C
:101A78000E06013B07B144449942DED1A242DCD1B3
:101A880007B0BDE8F08F3F2A4FF0010A94BF002647
:101A980001267F2B029694BF002701270097002E6E
:101AA8007FF4C8AE002F3FF4AEAEC3E608FA0BFBD6
:101AB8009CF8148028EA0B088CF814808AE709FA45
:101AC8000AFA97F8149029EA0A0987F81490C9E7DE
:101AD80009FA0BFB97F8149029EA0B0987F8149078
:101AE800C5E60AFA0BFB9EF814A02AEA0B0A8EF840
:101AF80014A018E797BB8EBB01260096E60803EBF7
:101B0800C6160644002D7FF4E2AE012704F0070C48
:101B1800039507FA0CFC377D27EA0C073775E3E6CF
:101B280006FA07F71E7D26EA07061E757FE70127D6
:101B380004F0070C07FA0CFC377D27EA0C07377509
:101B48002DE707FA0CFC377D029527EA0C0700956C
:101B580037756CE64FF0FF360096C5E6012600960D
:101B6800C5E60126049690E601260196EDE600BF3B
:101B780084B02DE9F04182B00125064604460DF1F6
:101B880024088572274688E80E00BDF84C3026F8F0
:101B9800083F304600F042FEBDF84E30A57127F8E8
:101BA800043F384600F03AFE4146204602F0D0FC99
:101BB8000021384600F01CFF0A2002F0E1FE294609
:101BC800384600F015FF0A2002F0DAFEAE23304650
:101BD80000218DF8073000F00BFF2A460DF10701B0
:101BE8006423204602F03AFDD523304600218DF8C3
:101BF800073000F0FDFE2A460DF107016423204658
:101C080002F02CFD8023304600218DF8073000F0CB
:101C1800EFFE2A460DF107016423204602F01EFD5F
:101C2800A823304600218DF8073000F0E1FE2A464F
:101C38000DF107016423204602F010FD3F233046D2
:101C480000218DF8073000F0D3FE2A460DF1070178
:101C58006423204602F002FDDA23304600218DF885
:101C6800073000F0C5FE2A460DF10701642320461F
:101C780002F0F4FC1223304600218DF8073000F002
:101C8800B7FE2A460DF107016423204602F0E6FC60
:101C98000021D32330460F468DF8073000F0A8FE08
:101CA8002A4664230DF10701204602F0D7FC394685
:101CB80030468DF8077000F09BFE2A460DF10701AB
:101CC8006423204602F0CAFC4023394630468DF88A
:101CD800073000F08DFE2A460DF1070164232046E7
:101CE80002F0BCFCA623394630468DF8073000F0D8
:101CF8007FFE2A460DF107016423204602F0AEFC60
:101D0800A423394630468DF8073000F071FE2A4684
:101D18000DF107016423204602F0A0FC8D2339460B
:101D280030468DF8073000F063FE2A460DF10701B2
:101D38006423204602F092FC1423394630468DF87D
:101D4800073000F055FE2A460DF1070164232046AE
:101D580002F084FCA123394630468DF8073000F0A4
:101D680047FE2A460DF107016423204602F076FC5F
:101D7800C823394630468DF8073000F039FE2A4628
:101D88000DF107016423204602F068FC81233946DF
:101D980030468DF8073000F02BFE2A460DF107017A
:101DA8006423204602F05AFC8F23394630468DF8CA
:101DB800073000F01DFE2A460DF107016423204676
:101DC80002F04CFCD923394630468DF8073000F034
:101DD8000FFE2A460DF107016423204602F03EFC5F
:101DE8002523394630468DF8073000F001FE2A4693
:101DF8000DF107016423204602F030FCDB2339464D
:101E080030468DF8073000F0F3FD2A460DF1070142
:101E18006423204602F022FC3423394630468DF8EC
:101E2800073000F0E5FD2A460DF10701642320463E
:101E380002F014FCAF23394630468DF8073000F025
:101E4800D7FD64232A460DF10701204602F006FC5F
:101E580002B0BDE8F04104B0704700BF80B5002172
:101E68009EB02448012400F093F940F60632224B34
:101E7800092016AD214FCDE9082300F00BF90346E0
:101E88001E20ADF8483000F005F9022200230B218E
:101E98000DF1200E0C940DF14C0C0E936C460F9323
:101EA8006646ADF84A00ADF82210CDE910220822A6
:101EB800CDE90A330D92BEE80F00ACE80F00BEE88A
:101EC8000F00ACE80F009EE807008CE807000FCD74
:101ED8000FC495E80F0084E80F0007F1080096E8A2
:101EE8000E00FFF745FE064B1F60054800F02AF874
:101EF800FBE700BF180800240105060A04040024B3
:101F08005408002410B509480024094A0949046006
:101F1800446104620DF0B4FF0748084B8460044A2A
:101F280007490360BDE810400DF0AABF1808002457
:101F3800000000249D09000804040024400401084E
:101F4800A10900082DE9F041044600684B4A84B015
:101F580003681B6993426CD14FF4806200211430EE
:101F68000EF0EAF92568464F2B68DA68BA4267D15D
:101F78002A269B682846AE809847002857D12B68A8
:101F880028469B689847013883B220683D4A016813
:101F9800EB8001250CCA00958D6A3B49A84720684B
:101FA8003A4A03681B6B934246D100F1080600F1D8
:101FB800100500F11408B024002728468DF80F40BA
:101FC8000134394600F014FD642301220DF10F019C
:101FD8003046E4B202F042FB394628468DF80F70CD
:101FE80000F006FD012264230DF10F01304602F0D6
:101FF80035FB1023394628468DF80F3000F0F8FCE1
:10200800642301220DF10F01304602F027FB012164
:10201800284600F0EDFC8022414664233046904477
:1020280002F01CFBB82CC7D104B0BDE8F081002336
:10203800ABE70021984795E704B0BDE8F0411847A1
:10204800134E28469047A6FB00362B68DA68C6F37D
:102058004F06BA4207D1802086428AD3DA68BA424C
:1020680005D17F2685E7284690472B68F4E7284660
:10207800904701382B6886B27BE700BFAD0900089E
:10208800A90900088401002474040108CD09000886
:10209800ABAAAAAA1F2882B009D8084B03EB4002B2
:1020A80013F81030507843EA002002B0704701233B
:1020B8000C2043EA002002B0704700BF7C040108EE
:1020C800F0B5032399B000270125129306462C4B3F
:1020D80009A81595CDE90E7340F20453ADF84030C8
:1020E800284BCDE91357099300F098FB09A800F095
:1020F80071FC002836D1244B04AF04460090CDF87B
:1021080042301023394604958DF820301F4BCDE915
:102118001650CDE906506846059300F0E9FD0823FE
:10212800009A01A909A8ADF804508DF80640099451
:102138000295039300F0E4F800230EA938463024F2
:10214800049301F029FB03224FF07E5309A906F1FD
:1021580014000B930C93CDE90942049A00F00CFB90
:1021680019B0F0BD40F60132074B169704AFADF831
:1021780024200998CDF84230179500F081F8DBE764
:102188000402040403030001040604030704010B0A
:102198002DE9F04304462DED028B83B0002948D089
:1021A800012140F2011200230091ADF804208DF8BE
:1021B8000630304A0126304B271D304904F12908E2
:1021C800626040F20272A36040F60663E16004F1C7
:1021D80025092682A4F8252084F82760A4F8293048
:1021E80084F82B6002F03AFD6946054648B304F1CD
:1021F80030008DF8066002F08FFC072D34D104F111
:1022080014052046FFF75CFF284600F0F1FA28463F
:10221800B0EE408A00F0E8FAD0ED007AF8EE677A7E
:1022280088EE277A84ED0E7A03B0BDEC028BBDE808
:10223800F08340F2011300918DF80610ADF80430D8
:10224800B7E704F1300002F067FC3946204600F099
:1022580097FF484600F0E2FA404600F0DFFA04F142
:10226800120000F077F9CAE73946204600F088FFE7
:10227800C5E700BF0508050905070506050A06069E
:1022880010B584B003460124ADF8040003A8ADF8E6
:102298000C30ADF80E4000F0C1FA214603A800F05A
:1022A800A7FB204602F06CFB002103A800F0A0FB6E
:1022B800204602F065FB214603A800F099FB04B014
:1022C80010BD00BF10B5C2F3002384B00C46017CDA
:1022D8008DF80D2043EA4402FA2402238DF80C20DD
:1022E80003AA009400F09AFD18B10124204604B016
:1022F80010BD04460A2002F043FB204604B010BD7E
:10230800034670B543F8042B044684B007C983E834
:102318000700A37983B91A210B461E22FA252374D4
:102328002046ADF80C20022303AA009500F076FDA4
:1023380028B1012004B070BD1B210B46EDE70A202F
:1023480002F01EFB4FF4B85200950223ADF80C20A2
:10235800204603AA217C00F061FD0028E9D10A206B
:1023680002F00EFB41F2027200950223ADF80C2038
:10237800204603AA217C00F051FD0028D9D10A206B
:1023880002F0FEFA042200950223ADF80C20204644
:1023980003AA217C00F042FD0028CAD10A2002F0DD
:1023A800EFFA062200950223ADF80C20204603AA76
:1023B800217C00F033FD0028BBD10A2002F0E0FAAE
:1023C80041F2082200950223ADF80C20204603AA0A
:1023D800217C00F023FD0028ABD10A20064602F03C
:1023E800CFFA0095022303AA217C2046ADF80C60A1
:1023F80000F014FD00289CD1304602F0C1FA009587
:1024080022790C232046002A8DF80C3003AA4FF0BD
:10241800020314BF622142218DF80D10217C00F0C7
:10242800FDFC002885D1304602F0AAFA2279D4E9C9
:1024380002310B43DBB20AB943F0400362790AB1B7
:1024480043F020030E22FA258DF80D302046009522
:1024580002238DF80C2003AA217C00F0DFFC002861
:102468007FF467AF0A2002F08BFA1022009502234E
:10247800ADF80C20204603AA217C00F0CFFC0028F0
:102488007FF457AF0A2002F07BFA1221009502234D
:10249800ADF80C1003AA217C204600F0BFFC0028F0
:1024A8007FF447AF0A2002F06BFA01220921204687
:1024B800FFF708FF003818BF01203BE7F0B51023ED
:1024C80087B0234C012200250126002702A92046B7
:1024D8000195CDE902234FF48052CDE9046708F055
:1024E800EFF9642002F060FE02A94FF48052204602
:1024F800CDE9046702261027CDE9026708F0E0F964
:102508000322102302A92046CDE902230023042236
:10251800CDE904234FF4805208F0D2F940F2322377
:10252800042202A9019310232046CDE90223019A2F
:10253800012305924FF48052049308F0C1F940F644
:102548000601204608F0DCF9284607B0F0BD00BFB8
:10255800600800241C4B00221C494FF0400C30B589
:10256800054689B00220596007219A601A62012441
:10257800DA620A224FF4006EDC6006922022CDE96E
:10258800000104200821CDE9020103201021CDE932
:10259800040108206946C3E904024FF4C072181DFB
:1025A800C3E906C24FF48052C3E909E208F05EF9B4
:1025B80038B92846FFF782FF003818BF012009B054
:1025C80030BD204609B030BD5C08002440410052AF
:1025D800614A0021D0B513688EB00A91002B40F0F3
:1025E800B9805E4B01214FF683700C2411600221E3
:1025F800D3F8D4200026032742F48052C3F8D4200D
:10260800D3F8D42002F480520092009AD3F8E02044
:1026180042F01002C3F8E020D3F8E02002F01002E4
:102628000192019AD3F8E02042F04002C3F8E0207A
:10263800D3F8E02002F040020292029AD3F8E02098
:1026480042F00802C3F8E020D3F8E02002F00802C4
:102658000392039AD3F8E02042F48072C3F8E02092
:10266800D3F8E02002F480720492049AD3F8E020B0
:1026780042F08002C3F8E020D3F8E02002F08002A4
:102688000592059AD3F8E02042F02002C3F8E02032
:10269800D3F8E02002F020020692069AD3F8E02050
:1026A80042F00402C3F8E020D3F8E0300C9403F0C1
:1026B800040307930323079A0B93CDE9080108A99C
:1026C800274803F017FE48F23712022308A92548C5
:1026D8000C94CDE90823CDE90A6703F00BFE4CF210
:1026E8000372022308A920480C94CDE90823CDE9F8
:1026F8000A6703F0FFFD40F2FF62022308A91B48A6
:102708000C94CDE90823CDE90A6703F0F3FD4FF6F1
:102718000C72022308A916480C94CDE90823CDE9C8
:102728000A6703F0E7FD4FF63F02022308A91148A4
:102738000C94CDE90823CDE90A6703F0DBFD2022DC
:10274800022308A90A480C94CDE90A67CDE90823B1
:1027580003F0D0FD0EB0D0BD580800240044025844
:102768000010025800180258000C025800200258A5
:10277800001C02580014025830B5184C154685B094
:10278800046004F1080EEC460FC98EE80F00D4ED82
:10279800047AF5EEC07A8CE80F00F1EE10FA1ADD33
:1027A800B7EE006A94ED057A27EE277AC6EE276A17
:1027B80084ED0D7AC4ED0C6A6DB1204640F8185FBF
:1027C80001F0E2F8064903690020064A2162A26284
:1027D800E36005B030BD012005B030BD9408002489
:1027E800002000300000003000680830704700BF4B
:1027F8000068183001F0CAB810B4074B4FF07E518A
:1028080030240022032019619C60D8605DF8044BD5
:102818005961C3E906227047940800248378022B83
:1028280030B504468FB037D0032B33D0012B31D0CD
:1028380000230A93E378012B2AD0022B28D0002307
:102848000B93002320460C9302F08CFB0546204690
:1028580002F090FB23780990082B13D8DFE803F0E7
:102868001F3245586B7E91A40500594BD3F8E020E0
:1028780042F48072C3F8E020D3F8E03003F48073A8
:102888000893089B09A9284603F034FD0FB030BD12
:102898000B93D6E70A93CDE711230A93CAE74C4B6B
:1028A80009A92846D3F8E02042F00102C3F8E02045
:1028B800D3F8E03003F001030093009B03F01AFD06
:1028C8000FB030BD424B09A92846D3F8E02042F0AA
:1028D8000202C3F8E020D3F8E03003F002030193CA
:1028E800019B03F007FD0FB030BD394B09A92846FD
:1028F800D3F8E02042F00402C3F8E020D3F8E03037
:1029080003F004030293029B03F0F4FC0FB030BD04
:102918002F4B09A92846D3F8E02042F00802C3F853
:10292800E020D3F8E03003F008030393039B03F09F
:10293800E1FC0FB030BD264B09A92846D3F8E020AA
:1029480042F01002C3F8E020D3F8E03003F010039F
:102958000493049B03F0CEFC0FB030BD1C4B09A9B7
:102968002846D3F8E02042F02002C3F8E020D3F84C
:10297800E03003F020030593059B03F0BBFC0FB088
:1029880030BD134B09A92846D3F8E02042F0400295
:10299800C3F8E020D3F8E03003F040030693069B29
:1029A80003F0A8FC0FB030BD094B09A92846D3F89D
:1029B800E02042F08002C3F8E020D3F8E03003F0D2
:1029C80080030793079B03F095FC0FB030BD00BF51
:1029D8000044025838B5054602F0C4FA04462846B1
:1029E80002F0C8FA01462046BDE8384003F08ABE26
:1029F80070B506460D4602F0B5FA0446304602F0B8
:102A0800B9FA2A1E0146204618BF0122BDE87040C7
:102A180003F07EBE0023122270B586B0CDE90223F2
:102A280004930368032B01D804230593061D841D12
:102A3800304602F097FA0546304602F09BFA034604
:102A480001A92846019303F055FC204602F08AFAB2
:102A5800034620461C4602F08DFA01A9034620468B
:102A6800019303F047FC06B070BD00BF634A0368DA
:102A7800934210B58CB028D0614A934258D0614A2D
:102A8800934200F09480604A934201D00CB010BD8C
:102A98005E4C5F48D4F8E03043F00203C4F8E030FD
:102AA800D4F8E03003F002030A930A9BFFF7B2FF61
:102AB800D4F8F43043F08003C4F8F430D4F8F43098
:102AC80003F080030B930B9BE0E7504C5148D4F87C
:102AD800E03043F00203C4F8E030D4F8E03003F00B
:102AE80002030193019BFFF795FFD4F8E830002219
:102AF8001F2043F400131146C4F8E830D4F8E83036
:102B080003F400130293029BD4F8D83043F0010376
:102B1800C4F8D830D4F8D83003F001030393039BEA
:102B280002F06CFB1F200CB0BDE8104002F0A4BB03
:102B3800364C3948D4F8E03043F08003C4F8E0302C
:102B4800D4F8E03003F080030493049BD4F8E03019
:102B580043F00203C4F8E030D4F8E03003F0020395
:102B68000593059BFFF756FFD4F8E8300022212093
:102B780043F480031146C4F8E830D4F8E83003F48D
:102B880080030693069BD4F8D83043F00103C4F8B9
:102B9800D830D4F8D83003F001030793079B02F02C
:102BA8002DFB21200CB0BDE8104002F065BB1B488E
:102BB800FFF730FF154B00224820D3F8E8401146B4
:102BC80044F40004C3F8E840D3F8E84004F40004EF
:102BD8000894089CD3F8D84044F00104C3F8D840BE
:102BE800D3F8D83003F001030993099B02F006FBE0
:102BF80048200CB0BDE8104002F03EBB0054004035
:102C080000580040005C0040001C00580044025876
:102C1800580B0024D0080024A8090024800A0024A6
:102C28002DE9F0431A4B87B000254FF010099E4656
:102C3800EC46184BFF22E04667461A700EF118065C
:102C48000EF13004CDE90055CDE90255ADF80090FC
:102C5800BCE80F00CDE90455AEE80F009CE803007E
:102C68000095ADF800908EE80300B8E80F000FC695
:102C78009CE803000095ADF8009086E803000FCFAC
:102C88000FC49CE8030084E8030007B0BDE8F083A4
:102C980004000024CC08002410B5EFF3108472B6A9
:102CA800084B1A78120602D504B962B610BD1B7813
:102CB800D82205485BB202FB0300143002F0C8FFBB
:102CC800F2E700BFCC080024D0080024014804F033
:102CD800B7BB00BF5C090024014804F0B1BB00BFCA
:102CE800340A0024014804F0ABBB00BF0C0B0024DD
:102CF8002DE9F0430F68D8243F4D85B007FB04F455
:102D0800032F05EB0403036040DCCB680E46012B60
:102D18003CD84DD04FF0D808B646DFF8FC9008FBF9
:102D28000758BEE80F00C446ACE80F00DEF80030D4
:102D38000DF1100ECCF80030D8F808C099E80F0053
:102D48000EE90F000EEB8703BCF1010F53F8103C9E
:102D5800C8F88C3031D0BCF1020F42D0BCF1000F62
:102D680035D0317C8C34D823002201202C4403FB3D
:102D780007534900C3E92602C3F894102046C3E963
:102D88002822C3E92A2204F04DF918B1012005B020
:102D9800BDE8F0830146204604F05EFB0028F5D12B
:102DA8000146204604F082FB003818BF0120EEE7F8
:102DB8000B7C103B672BADD9E8E701F04DFF0F4BBB
:102DC80098420CBF0E4B0F4BC8F89030C9E701F082
:102DD80043FF0A4B98420CBF0B4B0C4BC8F8903082
:102DE800BFE701F039FF054B98420CBF084B094B70
:102DF800C8F89030B5E700BFD0080024000E2707B8
:102E08002D0FB0303211D0205F4390608A62E030DD
:102E1800200BA0101A098010040401082DE9F041C4
:102E2800D0F8008082B00D4617461E4608F18C0483
:102E3800204604F00DFB2028FAD1D8F80C3073B9DD
:102E48006D002046089C33463A46A9B2009404F027
:102E58003FF9003818BF012002B0BDE8F081089B97
:102E680032463946204604F007FAF2E7044B1022AE
:102E78001A7483F8E82083F8C02183F898227047F1
:102E8800D008002430B5002395B04FF48071062295
:102E980004460B9306921393CDE90C13CDE90E3338
:102EA800CDE9113301F0DAFE07282BD004F1100523
:102EB80041F2883206A9284605F00AF928B101230B
:102EC800184684F85C3015B030BD0222022306A9EA
:102ED8002846CDE9002310220123CDE90223002250
:102EE8004FF48003CDE9042305224FF08073069246
:102EF8006A460F9341F2883305F056FA0028DED16E
:102F080015B030BD0323012084F85C3015B030BD06
:102F180070B50023A4B04FF080724FF4807504465A
:102F2800ADF806300D93CDE910320122CDE90E53EC
:102F3800CDE91223CDE91433002943D0F02300F161
:102F4800100508AEADF80630C02341F2883231468C
:102F58002846089305F0BCF828B10123184684F8E0
:102F68005C3024B070BD41F288320DF1060128466C
:102F780005F018F903460028EFD105224FF48071B7
:102F88001E93284616924FF080721B9321931F922E
:102F980002AA9FED1F7BCDE91C13CDE922338DEDED
:102FA800027B9FED1D7B41F2883316A98DED047BD2
:102FB8009FED1B7B8DED067B05F0F6F90028CCD143
:102FC80024B070BD00F1100508AE612341F28832CB
:102FD80031462846089305F07BF80028BDD141F218
:102FE80088320DF10601284605F05AF90028B4D1B7
:102FF800BDF80630204623F0780343F04003ADF8CF
:103008000630FFF73FFF00289ED0A6E7AFF3008009
:103018000000000001000000100000000100000096
:1030280000000000000040002DE9F04F00234FF49D
:10303800807501264FF0807804462DED028BABB0E9
:103048008DF8073013932193299314950E96CDF894
:103058005C80CDE91533CDE91863CDE91A33CDE9A4
:103068002253CDE92433CDE9273306231C9301F0FD
:10307800F5FD072808D004F1100741F288321CA991
:10308800384605F025F840B10123184684F85C302D
:103098002BB0BDEC028BBDE8F08F4FF0020A4FF069
:1030A800020B4FF0050941F2883308AA1CA93846DB
:1030B800CDF89480CDF870909FED2D8BCDE908ABBD
:1030C8004FF0000A4FF4800B8DED0A8BCDE90CAB65
:1030D80005F06AF90028D7D141F2883238460EA99E
:1030E80004F0F6FF0028CFD1402341F288320DF1D9
:1030F800070138468DF8073005F054F80028C3D189
:1031080041F288330EA902AA3846CDF83890CDF896
:103118005C809FED197B8DED048BCDE906AB8DEDC1
:10312800027B05F041F903460028ADD1CDF8709037
:103138004FF00109CDF894804FF00008219308AAB8
:1031480029931CA938462295CDE92333CDE92733A5
:1031580041F288338DED0A8BCDE90CABCDE90889B6
:1031680005F022F9002893D0304684F85C608FE798
:1031780010000000010000004000000040000000B6
:103188002DE9F043624CA3B00D46046001F066FDE2
:10319800072800F0A980286823466968AA6807C339
:1031A8001E46AB8926F8043B3046257B677B04F036
:1031B80071FFE0B9574B012D4FF00108E061236121
:1031C80014BF4FF480134FF40003C4E9058893FA41
:1031D800A3F3B3FA83F34FF48079013BC4F8249046
:1031E800C4E90B003046236204F0E8FE38B101223E
:1031F800134684F85C20184623B0BDE8F0836623A4
:103208000B90139041F2883206A90693CDE90C90F1
:10321800CDE90E00CDE91100304604F059FF002831
:10322800E5D1992341F2883206A93046069304F085
:103238004FFF0028DBD105231C9019906A46149390
:103248004FF08073219014A91D9341F288339FEDAC
:103258002A7BCDE91A90CDE91F008DED007B9FED0B
:10326800287B30468DED027B9FED277B8DED047B1F
:1032780005F09AF80028BAD129462046FFF748FEFB
:103288000028B4D12046FFF7CFFE03460028AED170
:10329800002FB0D1189330460027002606AA14A99B
:1032A800CDF86890CDE91F33EB2314934FF44063B6
:1032B8001B934FF4005317934FF440431C93A023E0
:1032C8001693062319934FF0805321934FF04073C0
:1032D800CDE906671D9305F0DFF8034600288AD07C
:1032E800434684F85C8086E701230322184684F865
:1032F8005C2023B0BDE8F08300000000010000005E
:103308001000000001000000000000000000400064
:10331800300C0024005000522DE9F04F8FB0414B83
:103328000024026800AF9A427C63C7E90944C7E9F0
:103338000B4403D03C37BD46BDE8F08F3A4B40F60E
:1033480009213A48EB46D3F8D42007F11C0607F1C7
:10335800220A4FF0020942F480424FF00308C3F8F2
:10336800D420D3F8D42002F48042BA60BA68D3F8E3
:10337800E02042F04002C3F8E020D3F8E02002F059
:103388004002FA60FA68D3F8E02042F02002C3F85D
:10339800E020D3F8E02002F020023A613A69D3F83D
:1033A800E02042F01002C3F8E020D3F8E02002F059
:1033B80010027A617A69D3F8E02042F00202C3F879
:1033C800E020D3F8E030F86103F002033984BB61F0
:1033D800174B7B60BB697B6853F8040F7B6001F077
:1033E800C1FD7B680546186801F0C4FD16F8013B6D
:1033F800786207F124012846C7F830807B63C7E963
:103408000A9402F077FF5645E5D100225C20114668
:1034180001F0F4FE5C2001F02FFF3C37DD46BD468D
:10342800BDE8F08F00500052004402580A0A09090A
:103438008C0C0024114B02689A4200D07047104A45
:1034480070B5D2F8D4300F4C23F4804304F1180639
:10345800C2F8D43054F8040F01F084FD0546206802
:1034680001F088FD0146284603F084F8B442F1D102
:103478005C20BDE8704001F00DBF00BF0050005255
:10348800004402588C0C0024014805F091B800BF94
:10349800400C0024084B1A1D981D03F1080110B4B4
:1034A8009C1C9A6603F10A02C3E91834C3E91B019C
:1034B8005DF8044B5A677047300C002438B5036830
:1034C80071B9026A00F1280500F5AC74012A0CBF35
:1034D800002140218BBB1D4B5722C0F858310DE00D
:1034E800426A00F1C00500F5E874012A0CBF00210A
:1034F8004021EBB1164B5A22C0F8D03100232046A8
:10350800C4E901214FF480524FF480616362626123
:103518004FF48042C4E903314FF48073C4E90623B1
:103528004FF40033236202F01BF858B1FFBEFEE7E8
:10353800084B5822C0F8D031E0E7074B5922C0F8B1
:103548005831DBE7C5E92044A56338BD10000240C7
:103558007000024028000240580002402DE9F04364
:10356800821D05468BB0031D05F10A010830CDE91F
:10357800052305F10C02AB69CDE907010992002B7F
:103588003DD0EB69B3FA83F84FEA581801230222B9
:1035980005AE0AAF4FF006090393CDE9012356F8AB
:1035A800044B2B792278934216D02B68F3B1012B68
:1035B80002D1F2B10A230493204601F0DBFC034652
:1035C8002046009301F0CEFC694602F093FEBE420D
:1035D800E5D10BB0BDE8F083697963789942E4D10D
:1035E800B8F1000FF3D02B68002BE0D1CDF8109084
:1035F800E2E76378022B14BF0A230823DBE74FF0C6
:103608000108C3E7534A0368934230B505468BB0B7
:1036180055D02032934252D04F4A934204D02032A0
:10362800934201D00BB030BD4C4C4D48D4F8E0303B
:1036380043F00103C4F8E030D4F8E03003F00103AC
:103648000593059BD4F8E03043F00803C4F8E03054
:10365800D4F8E03003F008030693069BD4F8E03072
:1036680043F04003C4F8E030D4F8E03003F04003FE
:103678000793079BD4F8F03043F40003C4F8F03004
:10368800D4F8F03003F400030893089BFFF766FFB3
:10369800D4F8D830296843F001032F4A3048C4F8D9
:1036A800D830891AD4F8D83018BF012103F00103A3
:1036B8000993099B0BB0BDE83040FFF7FFBE274CCC
:1036C8002848D4F8E03043F00103C4F8E030D4F8D7
:1036D800E03003F001030093009BD4F8E03043F09E
:1036E8001003C4F8E030D4F8E03003F0100301937D
:1036F800019BD4F8E03043F04003C4F8E030D4F83C
:10370800E03003F040030293029BD4F8F03043F416
:103718008003C4F8F030D4F8F03003F48003039346
:10372800039BFFF71BFFD4F8D830296843F0010347
:10373800084A0C48C4F8D830891AD4F8D83018BFC9
:10374800012103F001030493049B0BB0BDE8304052
:10375800FFF7B4BE04580140045C0140004402581D
:10376800040F0024A80C0024014802F071BA00BF1D
:10377800000E0024014802F06BBA00BF780E002446
:10378800014802F065BA00BF5C100024014802F04D
:103798005FBA00BFD41000242DE9F04F0C684FF435
:1037A8001776754F87B004FB06F6012C07EB060A5F
:1037B800C0F800A000F3A0800D468E464FF0000828
:1037C800D44669A3D3E9002369A1D1E90001CDE971
:1037D800022306ABCAF8508203EB8403CDE9040147
:1037E80053F810BC53F8083CCAE992880193BEE824
:1037F8000F00ACE80F00BEE80F00ACE80F00019B1B
:103808009EE80300CAF828B0CAF8C0308CE8030064
:103818002B69042B0CD8DFE803F0737D8791030034
:103828004FF41773554A03FB04739A64C3F8E020F6
:10383800AA692B6A002A43D0002B4FF4177308BFDC
:10384800022203FB047318BF0322DA6201221A63FF
:10385800EA696B6A002A40D1191E4FF4177318BF22
:10386800012103FB0473C3E931126B69022B05D8EC
:10387800434A12F80380434A52F823904FF41773CF
:1038880006F128004246494603FB047400233844E5
:1038980063646363E365C4F8DC30C4F8CC30C4F80F
:1038A800F430C4E90F33C4E91533C4E93533C4E946
:1038B8003B33022306F01EFF002849D0FFBEFEE777
:1038C800191E4FF4177318BF012103FB0473C3E9D2
:1038D8000B12EA696B6A002ABED0002B4FF41773EB
:1038E80008BF022203FB047318BF0322C3F8C420D5
:1038F8000122C3F8C820B8E7012007B0BDE8F08F5F
:103908004FF417734FF4FA5203FB04739A64C3F825
:10391800E0208DE74FF417734FF47A5203FB0473DA
:103928009A64C3F8E02083E74FF417734FF4FA4220
:1039380003FB04739A64C3F8E02079E74FF4177324
:103948004BF6803203FB04739A64C3F8E0206FE7F8
:1039580006F1C000022342464946384406F0CAFE32
:103968000028CAD0FFBEFEE704580140045C0140AD
:1039780024580140245C0140A80C00240077010071
:10398800BC040108C00401080068704703681B698B
:10399800042B05D8044A02EB830393ED000A704711
:1039A8009FED020A704700BFCC04010800803B4726
:1039B80070B5002304464FF4806204214FF440356B
:1039C8003448C4F83821C4F8D410C4F83431C4F8E1
:1039D8004C113149C4F8B000C4F82811C4E92F3299
:1039E800C4E93133C4E93335C4E93733C4E94F3363
:1039F800C4E95135C4E95533A2680323C4F8D83063
:103A0800C4F85031042A0AD8DFE802F01F262D3402
:103A1800030055225623C4F8B420C4F82C310022E0
:103A2800402304F1B005C4F8B8202846C4F8303162
:103A380001F096FD08B1FFBEFEE704F59476304626
:103A480001F08EFDE8B1FFBEFEE725222623C4F86B
:103A5800B420C4F82C31E2E727222823C4F8B42084
:103A6800C4F82C31DBE73D223E23C4F8B420C4F867
:103A78002C31D4E753225423C4F8B420C4F82C3191
:103A8800CDE704F12803C4E92865C4F8E830C4F890
:103A9800603170BD40040240580402402DE9F04FE7
:103AA800814683B00E4617461D4600F1280420467D
:103AB80007F05CFE01288246F9D14846FFF778FFF7
:103AC8008046002835D1EFF31083019372B6DFF8F2
:103AD80088B00C9B99F90820DFF880A0DFF8809067
:103AE800CBF800300D9B89F80020CAF800300DB1E2
:103AF8001846A847BAB23146204607F0ADF930B9A2
:103B0800019B03B962B6404603B0BDE8F08F0023BD
:103B1800CBF80030CAF80030FF2389F800300C9B3E
:103B28008BB101210D9888469847019B002BEAD15B
:103B3800E8E70C9B53B1D0460D985146984740464C
:103B480003B0BDE8F08F4FF00108D9E7D0464046F2
:103B580003B0BDE8F08F00BF801B0024881B002441
:103B6800841B00242DE9F04F814683B00E4617468A
:103B78001D4600F12804204607F0F8FD012882467A
:103B8800F9D14846FFF714FF8046002835D1EFF3F6
:103B98001083019372B6DFF888B00C9B99F908205E
:103BA800DFF880A0DFF88090CBF800300D9B89F813
:103BB8000020CAF800300DB11846A847BAB23146FD
:103BC800204607F00DFB30B9019B03B962B64046A9
:103BD80003B0BDE8F08F0023CBF80030CAF80030FE
:103BE800FF2389F800300C9B8BB101210D98884682
:103BF8009847019B002BEAD1E8E70C9B53B1D046CC
:103C08000D9851469847404603B0BDE8F08F4FF0F5
:103C18000108D9E7D046404603B0BDE8F08F00BFA1
:103C2800801B0024881B0024841B00242DE9F04FEE
:103C3800814683B00F461646984600F12804204670
:103C480007F094FD0128FAD182464846FFF7B0FEF6
:103C58000546002838D1EFF31083019372B699F91D
:103C68000830DFF88890DFF888B089F800300D9BBD
:103C7800DFF880A0CBF800300E9BCAF800300C9B10
:103C88000BB10E9898471FFA88F33A4631462046FA
:103C980007F09AF930B9019B03B962B6284603B018
:103CA800BDE8F08F0023CBF80030CAF80030FF23BE
:103CB80089F800300D9B8BB101210E980D4698476D
:103CC800019B002BEAD1E8E70D9B4BB155460E98B6
:103CD80051469847284603B0BDE8F08F0125DAE73A
:103CE8005546284603B0BDE8F08F00BF841B00246A
:103CF800801B0024881B00242DE9F043002387B093
:103D08000222044605690493CDE90223D0E9021290
:103D18008E00FAB1022D7AD02178B5FA85F54FF0E8
:103D28000108276A0B294FEA551521D1A2780B2AD9
:103D380002D0B8F1000F38D123790B2B01D0002D18
:103D48006CD1A37917B10B2B40F09980002007B0F4
:103D5800BDE8F08335F002032178276A0CBF4FF0E5
:103D680001084FF00008023D18BF01250B29DDD0DE
:103D78007D4B94F801C053F8262010780B2802D008
:103D8800884200F0AD80D378D01C994202D10B2B29
:103D980040F0BD809379901D8B4202D10B2B40F0EF
:103DA800BC80012007B0BDE8F083711C6E4BE07841
:103DB80053F8213019780B2902D08A4200F0B580D7
:103DC800D97803F1030C0B2902D08A4200F0BB809A
:103DD800997903F1060C0B29E3D08A42E1D1DB790A
:103DE8008342DED1634604F102099B784846059375
:103DF80001F0B8F88046484601F0BCF801A90190E6
:103E0800404602F077FA23790B2B98D199E701788D
:103E1800076A0B2940F0868001258DE7B11C524ABC
:103E2800607952F8212011780B2902D08B4200F0DA
:103E38008180D178D51C0B2902D08B4200F08D806F
:103E48009179951D8B42ACD10B29AAD0D3798342A5
:103E5800A7D12A46251D93782846059301F082F8B4
:103E6800034628461D4601F085F801A90190284619
:103E780002F040FAA379002F7FF465AF66E7F11CE2
:103E8800394AE07952F8212011780B2901D08B4268
:103E98005FD0D178D51C0B2901D08B424FD09179B6
:103EA800951D8B427FF47DAF0B293FF47AAFD37910
:103EB80083427FF476AF2A46A51D9378284605935A
:103EC80001F050F80446284601F054F8034601A9C9
:103ED8002046019302F00EFA002007B0BDE8F083F7
:103EE800537863457FF44FAF93782046059301F0EC
:103EF80039F88146204601F03DF801A9019048466D
:103F080002F0F8F9A2780B2A7FF413AF14E71379BB
:103F180063457FF43FAF0246E6E7D37963457FF414
:103F280040AFF8E79846012522E7597881427FF4A7
:103F380047AF58E7517881427FF47BAF8AE7117920
:103F48008142ACD1B7E7197981427FF441AF63462A
:103F580049E7517881429CD1AEE7117981427FF4DB
:103F68006FAF2A4676E700BF08050108654A03686F
:103F7800934200F0B980A2F57842934200F0B680EF
:103F880002F58062934200F0B38002F578429342D2
:103F980000F0B08002F5E052934200F0AD805A4A3A
:103FA800934240F0AB8005234FF4D071574A01FB90
:103FB80003F310B5D418D05C86B000F0E3FFA07806
:103FC80000F0E0FF207900F0DDFFA07900F0DAFFD3
:103FD800A368052B11D8DFE803F0192F455B71039F
:103FE8004B4BD3F8F42042F02002C3F8F420D3F866
:103FF800F43003F020030593059B2046FFF77CFE71
:10400800012801D006B010BDFFBEFEE7404B0022DC
:104018002320D3F8F01041F48051C3F8F010114672
:10402800D3F8F03003F480530093009B01F0E6F8D6
:10403800232001F021F9E0E7354B00222420D3F8B2
:10404800E81041F48041C3F8E8101146D3F8E8308D
:1040580003F480430193019B01F0D0F8242001F080
:104068000BF9CAE72A4B00223320D3F8E81041F4B1
:104078000041C3F8E8101146D3F8E83003F40043D0
:104088000293029B01F0BAF8332001F0F5F8B4E787
:104098001F4B00225420D3F8F01041F40051C3F80C
:1040A800F0101146D3F8F03003F400530393039B48
:1040B80001F0A4F8542001F0DFF89EE7144B002229
:1040C8005520D3F8F01041F48011C3F8F0101146D0
:1040D800D3F8F03003F480130493049B01F08EF8B6
:1040E800552001F0C9F888E700235DE701235BE765
:1040F800022359E7032357E7042355E700231B78D6
:10410800FFDE00BF00300140001400586011002499
:10411800004402582DE9F043002289B01B4B0121CD
:104128000DF1040C9E461A4B0791E146E04667469E
:104138000EF11C060EF138050EF15404CDE90122EA
:10414800CDE90322CDE90522FF221A70BCE80F0051
:10415800AEE80F009CE807008EE80700B9E80F00FA
:104168000FC69CE8070086E80700B8E80F000FC5EF
:104178009CE8070085E807000FCF0FC49CE80700FC
:1041880084E8070009B0BDE8F08300BF0C010024F3
:10419800841B0024014807F0BDB900BF8811002422
:1041A800014807F0B7B900BF28130024014807F0F9
:1041B800B1B900BFC8140024014807F0ABB900BF6B
:1041C80068160024014807F0A5B900BF08180024A4
:1041D80010B5EFF3108472B6084B1A78120602D5A0
:1041E80004B962B610BD1B784FF4D07204485BB2B4
:1041F80002FB0300B03001F02BFDF1E7841B002423
:104208006011002410B5EFF3108472B6094B1A78C8
:10421800120602D504B962B610BD1B784FF4D072ED
:1042280005485BB202FB030000F5947001F010FD35
:10423800F0E700BF841B0024601100242DE9F04141
:1042480084B0EFF3108772B6284AFF21284C136810
:10425800217023B100211160264A106898472378FD
:104268001B061CD5DFF894800025234E44462168A0
:1042780079B162686AB1A369012B22D0A3B96369D5
:104288003046019323690093E3682289FFF76AFCAB
:1042980018B301351C3406F5D076042DE7D107B9DB
:1042A80062B604B0BDE8F081D4E90430CDE901304C
:1042B800E068238900903046FFF7B8FC0028E8D171
:1042C8000BE0D4E904301146CDE900303046E3680C
:1042D8002289FFF7E3FB0028DBD1C5EBC50508EB16
:1042E800850348F825005860D9E700BF801B0024E3
:1042F800841B0024881B0024601100240C01002466
:104308002DE9F04184B0EFF3108772B6284AFF21F7
:10431800284C1368217023B100211160264A1068C7
:10432800984723781B061CD5DFF894800025234E78
:104338004446216879B162686AB1A369012B22D029
:10434800A3B963693046019323690093E36822891E
:10435800FFF708FC18B301351C3406F5D076042D98
:10436800E7D107B962B604B0BDE8F081D4E90430FA
:10437800CDE90130E068238900903046FFF756FC0C
:104388000028E8D10BE0D4E904301146CDE900302B
:104398003046E3682289FFF781FB0028DBD1C5EBB3
:1043A800C50508EB850348F825005860D9E700BF24
:1043B800801B0024841B0024881B00246011002417
:1043C8000C0100242DE9F04184B0EFF3108772B698
:1043D800284AFF21284C1368217023B1002111605D
:1043E800264A1068984723781B061CD5DFF8948066
:1043F8000025234E4446216879B162686AB1A369F1
:10440800012B22D0A3B96369304601932369009335
:10441800E3682289FFF7A6FB18B301351C3406F5BB
:10442800D076042DE7D107B962B604B0BDE8F081B3
:10443800D4E90430CDE90130E068238900903046A2
:10444800FFF7F4FB0028E8D10BE0D4E9043011466B
:10445800CDE900303046E3682289FFF71FFB0028CA
:10446800DBD1C5EBC50508EB850348F82500586086
:10447800D9E700BF801B0024841B0024881B00246C
:10448800601100240C0100242DE9F04184B0EFF301
:10449800108772B606F0A8FA284A294CFF2113683B
:1044A80021702BB1002111600121264A106898471C
:1044B80023781B061CD5DFF894800025224E44463D
:1044C800216879B162686AB1A369012B22D0A3B9C6
:1044D80063693046019323690093E3682289FFF7F3
:1044E80041FB18B301351C3406F5D076042DE7D10D
:1044F80007B962B604B0BDE8F081D4E90430CDE96B
:104508000130E068238900903046FFF78FFB0028D0
:10451800E8D10BE0D4E904301146CDE9003030464B
:10452800E3682289FFF7BAFA0028DBD1C5EBC50595
:1045380008EB850348F825005860D9E7801B00245C
:10454800841B0024881B0024601100240C01002413
:104558002DE9F0418F684FF4D0743D4E8C4607FB2F
:1045680004F4052F06EB04050560AE46BCE80F0011
:10457800AEE80F00BCE80F00AEE80F009CE80300AF
:104588008EE8030004D8EB68002B5ED0012B02D024
:104598000120BDE8F08100214FF4D07303FB0763CD
:1045A8001A69032AF4D8D3F814C0ACF104001C2803
:1045B800EED89B691BB1012BEAD14FF000734FF481
:1045C800D07000FB0760C06918B10128E0D14FF036
:1045D80080704FF4D07505FB0765D5F820E0BEF173
:1045E800020FD5D8D5F82480B8F1070FD0D85204D7
:1045F800E962C5E90E300CF1FF332A6304F12800A3
:104608006B634FEA087330446B640023C5E91233C7
:10461800C5E91433C5E91833C5E91A33C5E91C33AC
:10462800C5E91E33C5F880300A4B53F82E200A4BD3
:104638002A6453F82730AB624FF08043EB6506F0ED
:10464800D3F90028A5D0FFBEFEE74FF48001A3E709
:1046580060110024F8040108E0040108006892B21F
:1046680008B5283006F06EFA003818BF012008BDDA
:1046780030B4544B002108220220534CD9615862AF
:10468800C3F8BC11C3F8C401C3F85C13C3F86403CE
:10469800C3F8F424C3F8F814C3F8FC14C3F80405E9
:1046A800C3F89426C3F89816C3F89C16C3F8A40652
:1046B800C3F83428C3F83818C3F83C18C3F84408BA
:1046C800424D4348C3E90521C3E96D21C3E9D5211A
:1046D8002288A3783F49EA80CA800B723E492B7230
:1046E800CA800B722168A0F803204371C28003724C
:1046F8003A4C3B48E2802372A0F80320394C4371BE
:10470800C28003723848E2802372A0F80320374C35
:104718004371C2800372080C2180A070A4F80320A2
:104728006371E2802372324C324D2180A070A4F86C
:1047380003206371E28023722F4CEA8021802B7260
:10474800A070A4F803206371E28023722B4C2180AF
:10475800A070A4F803206371E2802372284C2180A2
:10476800A070A4F803206371E2802372254C218095
:10477800A070A4F803206371E2802372224C218088
:10478800A070A4F803206371E28023721F4C21807B
:104798001F49A070A4F803201E486371E2802372A9
:1047A800A1F803201C4C4B71CA800B721B49E28094
:1047B8002372C2800372A1F803204B71CA800B7266
:1047C80030BC7047601100240405010894000024DF
:1047D800B8000024880000244C000024A000002415
:1047E800DC000024C400002464000024501B0024C2
:1047F800381B0024D0000024441B0024201B002464
:10480800741B00245C1B0024681B00242C1B002440
:1048180000010024F4000024E800002470000024B3
:10482800704700BF08B500F0ADFCBDE8084000F0D7
:10483800ADBD00BF064808B503680BB101F06CFFB9
:10484800044803681BB1BDE8084002F05BBE08BD20
:10485800981F0024901B0024064808B503680BB174
:1048680001F05AFF044803681BB1BDE8084002F094
:1048780049BE08BD981F0024901B0024064808B5AF
:1048880003680BB101F048FF044803681BB1BDE899
:10489800084002F037BE08BD981F0024901B002472
:1048A800364BDA6A520062D59A6A9A6A9A6A9B6AA1
:1048B800180600D500BE314B9B6A990600D500BE8C
:1048C8002E4B9B6ADA0600D500BE2C4B9B6A1B0751
:1048D80000D500BE294B9B6A980700D500BE274B20
:1048E8009B6AD90700D500BE244B9B6A1A0400D5E1
:1048F80000BE224B9B6A9B0400D500BE1F4B9B6ADF
:10490800D80400D500BE1D4B9B6A190500D500BE12
:104918001A4B9B6A5A0500D500BE184B9B6A9B052B
:1049280000D500BE154B9B6AD80500D500BE134BB9
:104938009B6A990100D500BE104B9B6ADA0100D52D
:1049480000BE0E4B9B6A1B0300D500BE0B4B9B6A37
:10495800580300D500BE094B9B6A990300D500BED9
:10496800064B9B6ADA0306D400BE00BEFEE7DB6A8C
:104978009B07FAD5F8E700BEF6E700BF00ED00E0B8
:1049880000F012BC2DE9F041CEB004464C220021C3
:104998000AA80BF0D1FC2022002102A80BF0CCFCC5
:1049A800BC2200211EA80BF0C7FC022003F01EFA4F
:1049B8002368012B4FF0000354D0534A022501937A
:1049C800C820D16A514B21F00101D162D26A02F0AC
:1049D800010201929A6942F440429A619B6903F488
:1049E80040430193019B494A93699B04FCD548497C
:1049F8000224002201268B6A04274FF0080823F0BE
:104A0800030323438B62052316900AA818934FF4D7
:104A180080331096179419941597CDF86880CDE9CE
:104A28001B222122CDE91344CDE90A2303F0C8FE55
:104A380000B1FEE73F220323294602A8CDE902235D
:104A480000220823CDE9042340224023CDE9062390
:104A580040234FF48062CDE9082304F0DFF90346D0
:104A6800B8B1FEE7294A04250093F0209169264B46
:104A780041F440419161926902F440420092DA6A3D
:104A880042F00102DA62DB6A03F001030093009B43
:104A9800A9E720224FF4805125934FF440152B921B
:104AA80080222D931EA83093269135914FF4807162
:104AB800249234920C223394439140F2271120928D
:104AC8001022CDF884802A971F96CDE92E34CDE99F
:104AD8003B334FF48033CDE922463193002446938B
:104AE8000623CDE93E4527934FF48063094C2C9368
:104AF8001E94CDE9281204F0EDFB00B1FEE703F0A7
:104B08009BF94EB0BDE8F0810004005800480258F7
:104B1800004402580F130F032DE9F0410D460446D7
:104B280084B0D1E9000184E8030000F0FBFAAE7913
:104B3800002E37D06F4609F039F9FEF771F8FFF704
:104B4800E9FA08F0C7FE2B79002B54D16B799BB199
:104B5800BFF34F8FBFF36F8F3C4B0022C3F8502237
:104B6800BFF34F8FBFF36F8F5A6942F400325A6117
:104B7800BFF34F8FBFF36F8F4FF0FF320023002436
:104B880000253946324802928DF80C30CDE90045AF
:104B980008F006FA2E4808F06BFA08F0B9F804B0E5
:104BA800BDE8F08120466F46FFF7ECFE012400F0D7
:104BB8009BFB4FF040534FF4807838460193254BC8
:104BC800ADF80040CDE9023800F0ACFB19224FF0F7
:104BD800404338468DF80F40ADF80D808DF8014000
:104BE8008DF80A608DF80820019300F09BFB0420E3
:104BF80000F088FB9FE7154C0023C4F88430BFF30E
:104C08004F8FD4F8803043F6E07EC3F3C906C3F370
:104C18004E334FEA431C0CEA0E00334640EA8372D7
:104C2800013BC4F860225A1CF8D1ACF1200C1CF1ED
:104C3800200FF0D1BFF34F8F636943F48033636172
:104C4800BFF34F8FBFF36F8F80E700BF00ED00E029
:104C58008C1B00240E00010304F010BA1C4B9B6847
:104C680003F17842B2F5003F25D3B3F5803F20D356
:104C780003F16042B2F5003F1FD303F15C42B2F585
:104C8800002F1CD303F17042B2F5902F19D303F112
:104C98004842B2F5803F16D303F18042B2F1806FEB
:104CA80013D303F1E043B3F5000F2CBF082007200E
:104CB800704701207047002070470220704703208A
:104CC800704704207047052070470620704700BFD2
:104CD80000ED00E003480023034A044903600BF099
:104CE800CFB800BF8C1B002400000024294800080E
:104CF80010B4204C0022204B83B0D4F888101F48F1
:104D080041F47001C4F8881019681D4C41F0010184
:104D180019601A61196808401A4918609A61DA61BD
:104D28001A629A62DA621A635A639A63DA631A64D5
:104D38005A64186820F4802018601A66D3F8DC20BA
:104D480042F06042C3F8DC20D3F8DC300193019BC9
:104D580023681940B1F1005F03D20B4B0122C3F85D
:104D68000821044B4FF000629A6003B05DF8044BD1
:104D7800704700BF00ED00E0004402587FEDF6EAFE
:104D88000010005C0000FFFF0080005100F5717109
:104D9800D0F8040407F0A4BBC1EBC10300EB830304
:104DA800D0F80404D3F8082207F0C8BBC1EBC1034C
:104DB80000EB8303D0F804049A6C07F0FDBB00BF36
:104DC800D0F8040407F09CBCC16810B5044619B1BA
:104DD800022900D0FEE70121D4F8040407F07AFC88
:104DE800D4F80404BDE8104007F04CBC10B50446E4
:104DF800D0F8040407F072FC2268D2F8003E43F0B1
:104E08000103C2F8003E236A23B1034A136943F041
:104E18000603136110BD00BF00ED00E0D0F80404E4
:104E280007F066BCD0F8040407F07ABCD0F8040494
:104E380007F074BCD0F8040407F074BCD0F804047C
:104E480007F072BC9446D0F898021A4608B5634633
:104E580002F0BCFE032802D8024B185C08BD0220F1
:104E680008BD00BF78050108D0F8980208B502F01F
:104E78003BFF032802D8024B185C08BD022008BD7E
:104E880078050108D0F8980208B502F071FF0328E8
:104E980002D8024B185C08BD022008BD780501083D
:104EA8000A06D0F8983206D4C1EBC10103EB8101A0
:104EB80091F8FE01704701F07F01C1EBC10103EBDE
:104EC800810191F83E007047D0F8980208B502F0C9
:104ED80067FE032802D8024B185C08BD022008BDF3
:104EE80078050108D0F8980208B502F0D5FE032825
:104EF80002D8024B185C08BD022008BD78050108DD
:104F0800D0F8980208B502F09FFE032802D8024B99
:104F1800185C08BD022008BD78050108D0F8C00259
:104F280007F0B0BED0F8C00207F0C4BED0F8C00287
:104F380007F0CCBE704700BFD0F8C00207F0B2BE81
:104F4800D0F8C00207F0B2BED0F8D00308B501F01F
:104F5800A3FF032802D8024B185C08BD022008BD35
:104F68007C050108024B027853F82200704700BF05
:104F7800A0050108024B427833F81200704700BFC1
:104F8800800501088CB00A2814D8DFE800F0152342
:104F9800313F4D5B6977859306004D4BD3F8E02090
:104FA80042F48062C3F8E020D3F8E03003F4806371
:104FB8000B930B9B0CB07047454BD3F8E02042F0A5
:104FC8000102C3F8E020D3F8E03003F001030193B5
:104FD800019BEFE73E4BD3F8E02042F00202C3F812
:104FE800E020D3F8E03003F002030293029BE1E7EC
:104FF800374BD3F8E02042F00402C3F8E020D3F89E
:10500800E03003F004030393039BD3E7304BD3F85A
:10501800E02042F00802C3F8E020D3F8E03003F0C3
:1050280008030493049BC5E7294BD3F8E02042F01A
:105038001002C3F8E020D3F8E03003F01003059322
:10504800059BB7E7224BD3F8E02042F02002C3F8D3
:10505800E020D3F8E03003F020030693069BA9E78D
:105068001B4BD3F8E02042F04002C3F8E020D3F80D
:10507800E03003F040030793079B9BE7144BD3F8FA
:10508800E02042F08002C3F8E020D3F8E03003F0DB
:1050980080030893089B8DE70D4BD3F8E02042F47A
:1050A8008072C3F8E020D3F8E03003F480730993EA
:1050B800099B7FE7064BD3F8E02042F40072C3F85F
:1050C800E020D3F8E03003F400730A930A9B71E7F9
:1050D80000440258704700BF0F4B1B780BB90120E2
:1050E800704710B504464FF47A700C4AB0FBF3F3DE
:1050F8001068B0FBF3F000F0E1F80F2C00D808B10D
:10510800012010BD002221464FF0FF3000F076F854
:10511800034B00201C6010BD8C0100247C0100247E
:105128009001002438B50320124D00F055F8124CB8
:1051380003F0D4FD114A12499369C3F30323CB5CEE
:1051480003F01F0320FA03F30E202B60926902F08C
:105158000F028A5C02F01F02D3402360FFF7BCFFF6
:1051680010B10124204638BD0446FFF7B3FF20469E
:1051780038BD00BF7C01002480010024004402588F
:1051880068050108034A044B11681B780B44136037
:10519800704700BF5C2200248C010024014B186872
:1051A800704700BF5C22002438B50446FFF7F6FFBD
:1051B8000546631C02D0044B1B781C44FFF7EEFF26
:1051C800431BA342FAD338BD8C010024014B186855
:1051D800000C70470010005C06494FF6FF0C0002F7
:1051E800054BCA6800F4E06002EA0C02104303436E
:1051F800CB60704700ED00E00000FA051B4BDB6850
:10520800C3F3022300B5C3F1070E03F1040CBEF18A
:10521800040F28BF4FF0040EBCF1060F1AD9033B48
:105228004FF0FF3C0CFA03FC22EA0C024FF0FF3C63
:1052380000280CFA0EFC21EA0C0101FA03F141EAFC
:1052480002010ADB09010A4BC9B2034483F80013BF
:105258005DF804FB00221346E8E700F00F0009019F
:10526800044BC9B2034419765DF804FB00ED00E075
:1052780000E100E0FCEC00E0002807DB00F01F0183
:1052880001234009024A8B4042F82030704700BF92
:1052980000E100E000280DDB4309012200F01F00B7
:1052A8000549203302FA00F041F82300BFF34F8F7D
:1052B800BFF36F8F704700BF00E100E0431EB3F1FA
:1052C800807F0CD24FF0E022002006494FF0F00C0E
:1052D8005361072381F823C090611361704701204F
:1052E800704700BF00ED00E0BFF35F8F044B002163
:1052F8005A6A22F480325A62C3F89410704700BF89
:1053080000ED00E0064B40F00100C3F894005A6A33
:1053180042F480325A62BFF34F8FBFF36F8F7047EA
:1053280000ED00E0174A4378C2F89830017821B3BD
:10533800436800B5C2F89C30C37A90F80CC01B06CD
:1053480090F80FE043EA0C7390F80AC00B43817B96
:1053580043EACC4390F80DC043EA8C4390F809C067
:1053680043EA4143017A43EA0E4343EA0C2343EA02
:105378004103C2F8A0305DF804FBC2F89C10C2F8E3
:10538800A010704700ED00E0704700BF08B5FFF7B8
:10539800FBFF08BD0268344B344930B4344D354CFA
:1053A800AA4218BF9A420CBF012300238A4208BFB1
:1053B80043F001033031A24208BF43F00103303407
:1053C8008A4208BF43F001033031A24208BF43F0CC
:1053D800010330348A4208BF43F0010301F55C71D0
:1053E800A24208BF43F0010304F55C748A4208BF77
:1053F80043F001033031A24208BF43F001033034C7
:105408008A4208BF43F001033031A24208BF43F08B
:10541800010330348A4208BF43F001033031A2420D
:1054280008BF43F001038A4208BF43F0010313B9E0
:10543800114B9A4213D1D3B21049114C103BA1FB26
:1054480003515F2B0F4BC1F3021103EA0203615CA6
:1054580088BF0433C1658365184630BC704722F0A5
:10546800FF038365F8E700BF1000024040000240D8
:105478002800024058000240B8040240ABAAAAAA79
:105488003C0D010800FCFFFF0368294A294930B494
:10549800294D2A4CAB4218BF93420CBF012200226F
:1054A8008B4208BF42F001022831A34208BF42F0F4
:1054B800010228348B4208BF42F001022831A3427E
:1054C80008BF42F001028B4208BF42F0010212B944
:1054D8001B4A934213D1DBB21A4C1B4A0121083BE9
:1054E8001A4DA4FB0343456602EB1312C3F30413DE
:1054F800920001FA03F30266836630BC7047DAB2A1
:105508001349144C1944103AA829A4FB02234FEA62
:10551800131300D80833104A03F01F0501210F4C5C
:105528001A44A9404466920081660266E5E700BF16
:1055380008540258305402581C5402584454025813
:1055480094540258CDCCCCCC009600168058025802
:10555800F0FBFDBFABAAAAAA008200108008024097
:1055680070B50446FFF71AFE002C00F0C6802368C9
:105578000546954A934248D01832934245D0303276
:1055880092498B4218BF934201F130010CBF0122AE
:1055980000228B4208BF42F0010218318B4208BF3B
:1055A80042F0010218318B4208BF42F00102183163
:1055B8008B4208BF42F0010201F556718B4208BFC9
:1055C80042F0010218318B4208BF42F00102183143
:1055D8008B4208BF42F0010218318B4208BF42F0EB
:1055E800010218318B4208BF42F0010218318B4288
:1055F80008BF42F0010218318B4208BF42F0010295
:105608001AB9734A934240F0F5800222002184F8C7
:10561800352084F834101A6822F001021A6005E077
:10562800FFF7BCFD431B052B40D823681A68D10738
:10563800F6D4D4E9022521692A43A0691D680A43E2
:1056480061690A43E16902430A4362492940256ABC
:105658002A430A43616A04292FD01A605A6922F042
:105668000702114359612046FFF794FEE26D3F237C
:1056780002F01F02934083602046FFF705FFA368EE
:10568800802B3CD06368A06EDAB2013BD4E9185194
:10569800072B2A60486026D90023C4E91B336367B7
:1056A80000200123606584F8353070BD2022032373
:1056B8000120626584F8353070BDD4E90B51294367
:1056C8000A431A605969A26A21F00701114341F09F
:1056D8000401002DC6D000284FD1012A6ED032F027
:1056E8000202BFD151E0501E072810D9626FD4E9D9
:1056F8001B31002018604A60D2E7012070BD0023EA
:10570800A16ED4E91802636003605160C4E72168A0
:10571800314B324DA94218BF994205F114050CBF0F
:1057280001230023A94208BF43F001031435A9420D
:1057380008BF43F001031435A94208BF43F0010331
:105748001435A94208BF43F001031435A94208BF24
:1057580043F001033BB9224B994204D0214B224923
:1057680013449B0003E0214B214913449B00012271
:105778008240C4E91B316267BBE7B0F5005F0ED019
:10578800022A05D9032A7FF46DAFEA017FF56AAFD3
:10579800012340221846626584F8353070BD032A1B
:1057A8003FF660AF01A050F822F000BF99570008FB
:1057B8009357000899570008C5570008B5F1C07FEE
:1057C8007FF450AFE4E700BF100002404000024001
:1057D800B80402403F8010FE085402581C54025876
:1057E800945402583F820010400902403F96001628
:1057F80040590258324A33483349834218BF9342CA
:1058080000F128000CBF012200228B4208BF42F0A1
:1058180001022831834208BF42F0010228308B423E
:1058280008BF42F001022831834208BF42F001025A
:105838008B4208BF42F0010212B9244A934238D180
:1058480002220021224D84F8341084F835201A6889
:105858001540A268402A2AD0802A0CBF4FF4804005
:105868000846266AD4E90312D20842EAD1026169DD
:1058780042EAD102A16942EAD102E16942EAD102CF
:10588800144942EA161219442A4302431248A0FB5B
:10589800010120461A600B099B00E365FFF77AFDBA
:1058A800E26D012302F01F0293404360E4E61020FA
:1058B800D7E7402203230120626584F8353070BDA4
:1058C800085402581C540258305402589454025830
:1058D8000F00FEFFF8ABFDA7CDCCCCCC002800F024
:1058E800BC80844690F83400012800F0B88001207C
:1058F8002DE9F0419CF835408CF83400844208D0FA
:1059080000224FF400638CF83420CCF85430BDE802
:10591800F0810220DCF800507A4C8CF83500002029
:10592800794ECCF854007948854218BFA54200F159
:1059380018000CBF01240024854208BF44F001046C
:105948001830854208BF44F001041830854208BF6A
:1059580044F001041830854208BF44F0010400F502
:105968005670854208BF44F001041830854208BFCC
:1059780044F001041830854208BF44F0010418308F
:10598800854208BF44F001041830854208BF44F03E
:1059980001041830854208BF44F0010418308542DC
:1059A80008BF44F001041830854208BF44F00104E0
:1059B800A0F59560B54218BF8542DCF86C600CBF55
:1059C8000120002054EA0008286820F0010028601F
:1059D800DCF86400DCF86840DCF85870446040D0BB
:1059E80016B1DCE91C044460DCF85C004FF03F0EA3
:1059F80000F01F000EFA00F0B860286820F480203C
:105A080028606B60DCF80830402B23D0A960EA607E
:105A18002B6823F01E0343F016032B60DCF840309C
:105A28001BB12B6843F008032B60DCF860301A6860
:105A3800D20303D51A6842F480721A601EB1336823
:105A480043F4807333602B68002043F001032B601C
:105A5800BDE8F081AA60E960DAE70120704702201A
:105A6800704716B1DCE91C0444602948DFF8A8E057
:105A7800754518BF85420EF1140E0CBF0120002099
:105A8800754508BF40F001000EF1140E754508BFBA
:105A980040F001000EF1140E754508BF40F00100FA
:105AA8000EF1140E754508BF40F001000EF1140EFA
:105AB800754508BF40F0010010B9164885420ED15F
:105AC800DCF85C0000F01F0E012000FA0EF0786090
